{
  "address": "0x0165878A594ca255338adfa4d48449f69242Eb8F",
  "abi": [
    {
      "inputs": [
        {
          "internalType": "address",
          "name": "_spendVerifier",
          "type": "address"
        },
        {
          "internalType": "address",
          "name": "_outputVerifier",
          "type": "address"
        },
        {
          "internalType": "address",
          "name": "_merkleHasher",
          "type": "address"
        }
      ],
      "stateMutability": "nonpayable",
      "type": "constructor"
    },
    {
      "anonymous": false,
      "inputs": [
        {
          "indexed": false,
          "internalType": "uint256[2]",
          "name": "valueCommitment",
          "type": "uint256[2]"
        },
        {
          "indexed": false,
          "internalType": "bytes",
          "name": "encryptedOutput",
          "type": "bytes"
        },
        {
          "indexed": false,
          "internalType": "uint256",
          "name": "chainId",
          "type": "uint256"
        },
        {
          "indexed": false,
          "internalType": "address",
          "name": "destination",
          "type": "address"
        }
      ],
      "name": "NewBridgeout",
      "type": "event"
    },
    {
      "anonymous": false,
      "inputs": [
        {
          "indexed": true,
          "internalType": "uint256",
          "name": "commitment",
          "type": "uint256"
        },
        {
          "indexed": true,
          "internalType": "uint256",
          "name": "index",
          "type": "uint256"
        },
        {
          "indexed": false,
          "internalType": "bytes",
          "name": "encryptedOutput",
          "type": "bytes"
        }
      ],
      "name": "NewCommitment",
      "type": "event"
    },
    {
      "anonymous": false,
      "inputs": [
        {
          "indexed": true,
          "internalType": "bytes32",
          "name": "commitment",
          "type": "bytes32"
        }
      ],
      "name": "NewCommitmentReceived",
      "type": "event"
    },
    {
      "anonymous": false,
      "inputs": [
        {
          "indexed": true,
          "internalType": "uint256",
          "name": "nullifier",
          "type": "uint256"
        }
      ],
      "name": "NewNullifier",
      "type": "event"
    },
    {
      "inputs": [],
      "name": "FIELD_SIZE",
      "outputs": [
        {
          "internalType": "uint256",
          "name": "",
          "type": "uint256"
        }
      ],
      "stateMutability": "view",
      "type": "function"
    },
    {
      "inputs": [],
      "name": "ROOT_HISTORY_SIZE",
      "outputs": [
        {
          "internalType": "uint32",
          "name": "",
          "type": "uint32"
        }
      ],
      "stateMutability": "view",
      "type": "function"
    },
    {
      "inputs": [],
      "name": "ZERO_VALUE",
      "outputs": [
        {
          "internalType": "uint256",
          "name": "",
          "type": "uint256"
        }
      ],
      "stateMutability": "view",
      "type": "function"
    },
    {
      "inputs": [
        {
          "internalType": "address",
          "name": "_address",
          "type": "address"
        }
      ],
      "name": "_getBytecodeHash",
      "outputs": [
        {
          "internalType": "bytes32",
          "name": "",
          "type": "bytes32"
        }
      ],
      "stateMutability": "view",
      "type": "function"
    },
    {
      "inputs": [
        {
          "internalType": "uint256",
          "name": "_assetId",
          "type": "uint256"
        },
        {
          "internalType": "address",
          "name": "_assetAddress",
          "type": "address"
        },
        {
          "internalType": "uint8",
          "name": "_decimals",
          "type": "uint8"
        }
      ],
      "name": "addSupportedAsset",
      "outputs": [],
      "stateMutability": "nonpayable",
      "type": "function"
    },
    {
      "inputs": [
        {
          "internalType": "uint256",
          "name": "",
          "type": "uint256"
        }
      ],
      "name": "assetToAddress",
      "outputs": [
        {
          "internalType": "uint256",
          "name": "assetId",
          "type": "uint256"
        },
        {
          "internalType": "address",
          "name": "assetAddress",
          "type": "address"
        },
        {
          "internalType": "uint8",
          "name": "decimals",
          "type": "uint8"
        }
      ],
      "stateMutability": "view",
      "type": "function"
    },
    {
      "inputs": [],
      "name": "bridgeoutVerifier",
      "outputs": [
        {
          "internalType": "contract BridgeoutVerifier",
          "name": "",
          "type": "address"
        }
      ],
      "stateMutability": "view",
      "type": "function"
    },
    {
      "inputs": [
        {
          "internalType": "bytes",
          "name": "_proof",
          "type": "bytes"
        },
        {
          "internalType": "uint256[2]",
          "name": "_pubSignals",
          "type": "uint256[2]"
        }
      ],
      "name": "bridgeoutVerify",
      "outputs": [],
      "stateMutability": "view",
      "type": "function"
    },
    {
      "inputs": [],
      "name": "currentRootIndex",
      "outputs": [
        {
          "internalType": "uint32",
          "name": "",
          "type": "uint32"
        }
      ],
      "stateMutability": "view",
      "type": "function"
    },
    {
      "inputs": [
        {
          "internalType": "uint256",
          "name": "",
          "type": "uint256"
        }
      ],
      "name": "filledSubtrees",
      "outputs": [
        {
          "internalType": "bytes32",
          "name": "",
          "type": "bytes32"
        }
      ],
      "stateMutability": "view",
      "type": "function"
    },
    {
      "inputs": [],
      "name": "getLastRoot",
      "outputs": [
        {
          "internalType": "bytes32",
          "name": "",
          "type": "bytes32"
        }
      ],
      "stateMutability": "view",
      "type": "function"
    },
    {
      "inputs": [
        {
          "internalType": "bytes32",
          "name": "_left",
          "type": "bytes32"
        },
        {
          "internalType": "bytes32",
          "name": "_right",
          "type": "bytes32"
        }
      ],
      "name": "hashLeftRight",
      "outputs": [
        {
          "internalType": "bytes32",
          "name": "",
          "type": "bytes32"
        }
      ],
      "stateMutability": "view",
      "type": "function"
    },
    {
      "inputs": [],
      "name": "hasher",
      "outputs": [
        {
          "internalType": "contract IHasher",
          "name": "",
          "type": "address"
        }
      ],
      "stateMutability": "view",
      "type": "function"
    },
    {
      "inputs": [
        {
          "internalType": "bytes32",
          "name": "_root",
          "type": "bytes32"
        }
      ],
      "name": "isKnownRoot",
      "outputs": [
        {
          "internalType": "bool",
          "name": "",
          "type": "bool"
        }
      ],
      "stateMutability": "view",
      "type": "function"
    },
    {
      "inputs": [
        {
          "internalType": "uint256",
          "name": "_nullifierHash",
          "type": "uint256"
        }
      ],
      "name": "isSpent",
      "outputs": [
        {
          "internalType": "bool",
          "name": "",
          "type": "bool"
        }
      ],
      "stateMutability": "view",
      "type": "function"
    },
    {
      "inputs": [],
      "name": "levels",
      "outputs": [
        {
          "internalType": "uint32",
          "name": "",
          "type": "uint32"
        }
      ],
      "stateMutability": "view",
      "type": "function"
    },
    {
      "inputs": [],
      "name": "nextIndex",
      "outputs": [
        {
          "internalType": "uint32",
          "name": "",
          "type": "uint32"
        }
      ],
      "stateMutability": "view",
      "type": "function"
    },
    {
      "inputs": [
        {
          "internalType": "uint256",
          "name": "",
          "type": "uint256"
        }
      ],
      "name": "nullifierHashes",
      "outputs": [
        {
          "internalType": "bool",
          "name": "",
          "type": "bool"
        }
      ],
      "stateMutability": "view",
      "type": "function"
    },
    {
      "inputs": [],
      "name": "outputVerifier",
      "outputs": [
        {
          "internalType": "contract OutputVerifier",
          "name": "",
          "type": "address"
        }
      ],
      "stateMutability": "view",
      "type": "function"
    },
    {
      "inputs": [
        {
          "internalType": "bytes",
          "name": "_proof",
          "type": "bytes"
        },
        {
          "internalType": "uint256[1]",
          "name": "_pubSignals",
          "type": "uint256[1]"
        }
      ],
      "name": "outputVerify",
      "outputs": [],
      "stateMutability": "view",
      "type": "function"
    },
    {
      "inputs": [
        {
          "internalType": "bytes32",
          "name": "_commitment",
          "type": "bytes32"
        }
      ],
      "name": "receiveCommitments",
      "outputs": [],
      "stateMutability": "nonpayable",
      "type": "function"
    },
    {
      "inputs": [
        {
          "internalType": "bytes32",
          "name": "",
          "type": "bytes32"
        }
      ],
      "name": "receivedCommitments",
      "outputs": [
        {
          "internalType": "enum MultiAssetShieldedPool.ValueCommitmentState",
          "name": "",
          "type": "uint8"
        }
      ],
      "stateMutability": "view",
      "type": "function"
    },
    {
      "inputs": [
        {
          "internalType": "uint256",
          "name": "",
          "type": "uint256"
        }
      ],
      "name": "roots",
      "outputs": [
        {
          "internalType": "bytes32",
          "name": "",
          "type": "bytes32"
        }
      ],
      "stateMutability": "view",
      "type": "function"
    },
    {
      "inputs": [],
      "name": "spendVerifier",
      "outputs": [
        {
          "internalType": "contract SpendVerifier",
          "name": "",
          "type": "address"
        }
      ],
      "stateMutability": "view",
      "type": "function"
    },
    {
      "inputs": [
        {
          "internalType": "bytes",
          "name": "_proof",
          "type": "bytes"
        },
        {
          "internalType": "uint256[1]",
          "name": "_pubSignals",
          "type": "uint256[1]"
        }
      ],
      "name": "spendVerify",
      "outputs": [],
      "stateMutability": "view",
      "type": "function"
    },
    {
      "inputs": [
        {
          "components": [
            {
              "internalType": "bytes",
              "name": "proof",
              "type": "bytes"
            },
            {
              "internalType": "uint256",
              "name": "nullifier",
              "type": "uint256"
            },
            {
              "internalType": "uint256[2]",
              "name": "valueCommitment",
              "type": "uint256[2]"
            }
          ],
          "internalType": "struct Spend[]",
          "name": "_spends",
          "type": "tuple[]"
        },
        {
          "components": [
            {
              "internalType": "bytes",
              "name": "proof",
              "type": "bytes"
            },
            {
              "internalType": "uint256",
              "name": "commitment",
              "type": "uint256"
            },
            {
              "internalType": "uint256[2]",
              "name": "valueCommitment",
              "type": "uint256[2]"
            },
            {
              "internalType": "bytes",
              "name": "encryptedOutput",
              "type": "bytes"
            }
          ],
          "internalType": "struct Output[]",
          "name": "_outputs",
          "type": "tuple[]"
        },
        {
          "components": [
            {
              "internalType": "uint256[2]",
              "name": "valueCommitment",
              "type": "uint256[2]"
            }
          ],
          "internalType": "struct BridgeIn[]",
          "name": "_bridgeIns",
          "type": "tuple[]"
        },
        {
          "components": [
            {
              "internalType": "bytes",
              "name": "proof",
              "type": "bytes"
            },
            {
              "internalType": "uint256",
              "name": "chainId",
              "type": "uint256"
            },
            {
              "internalType": "address",
              "name": "destination",
              "type": "address"
            },
            {
              "internalType": "bytes",
              "name": "encryptedOutput",
              "type": "bytes"
            },
            {
              "internalType": "uint256[2]",
              "name": "valueCommitment",
              "type": "uint256[2]"
            }
          ],
          "internalType": "struct BridgeOut[]",
          "name": "_bridgeOuts",
          "type": "tuple[]"
        },
        {
          "internalType": "uint256",
          "name": "_extAssetHash",
          "type": "uint256"
        },
        {
          "internalType": "int256",
          "name": "_extAmount",
          "type": "int256"
        },
        {
          "internalType": "uint256[2]",
          "name": "_bpk",
          "type": "uint256[2]"
        },
        {
          "internalType": "uint256",
          "name": "_root",
          "type": "uint256"
        },
        {
          "internalType": "uint256[2]",
          "name": "_R",
          "type": "uint256[2]"
        },
        {
          "internalType": "uint256",
          "name": "_s",
          "type": "uint256"
        },
        {
          "internalType": "bytes",
          "name": "_hash",
          "type": "bytes"
        }
      ],
      "name": "transact",
      "outputs": [],
      "stateMutability": "nonpayable",
      "type": "function"
    },
    {
      "inputs": [
        {
          "internalType": "uint256",
          "name": "i",
          "type": "uint256"
        }
      ],
      "name": "zeros",
      "outputs": [
        {
          "internalType": "bytes32",
          "name": "",
          "type": "bytes32"
        }
      ],
      "stateMutability": "pure",
      "type": "function"
    }
  ],
  "transactionHash": "0x002acdfabbb6d036d3cf347ac5e513d8ba8975a4fbbe1ba0ba5cb9ffb765dfc8",
  "args": [
    "0xDc64a140Aa3E981100a9becA4E685f962f0cF6C9",
    "0xCf7Ed3AccA5a467e9e704C703E8D87F634fB0Fc9",
    "0x9fE46736679d2D9a65F0992F2272dE9f3c7fa6e0"
  ],
  "numDeployments": 1,
  "solcInputHash": "aaa736e6db7a5148f425417253950e53",
  "bytecode": "0x60a0346200015a57601f6200462838819003918201601f191683019291906001600160401b038411838510176200015f5781606092849260409687528339810103126200015a57620000518162000175565b9060206200006f84620000676020850162000175565b930162000175565b6003805460056080908152600080546001600160a01b03199081166001600160a01b039687161782556001600160e01b031990931697891b600160401b600160e01b03169790971790925560048054821693909516929092179093559290815b835163ffffffff8281169116811015620001095763ffffffff9181620000f76001936200018a565b908652828552888620550116620000cf565b868685826200012063ffffffff608051166200018a565b91808052600260205220553390600854161760085551613e709081620007b8823960805181818161082901528181611d7d0152611ddd0152f35b600080fd5b634e487b7160e01b600052604160045260246000fd5b51906001600160a01b03821682036200015a57565b80620001b557507f2fe54c60d3acabf3343a35b6eba15db4821b340f76e741e2249685ed4899af6c90565b60018103620001e357507f13e37f2d6cb86c78ccc1788607c2b199788c6bb0a615a21f2e7a8e88384222f890565b600281036200021157507f217126fa352c326896e8c2803eec8fd63ad50cf65edfef27a41a9e32dc62276590565b600381036200023f57507f0e28a61a9b3e91007d5a9e3ada18e1b24d6d230c618388ee5df34cacd7397eee90565b600481036200026d57507f27953447a6979839536badc5425ed15fadb0e292e9bc36f92f0aa5cfa501358790565b600581036200029b57507f194191edbfb91d10f6a7afd315f33095410c7801c47175c2df6dc2cce0e3affc90565b60068103620002c957507f1733dece17d71190516dbaf1927936fa643dc7079fc0cc731de9d6845a47741f90565b60078103620002f757507f267855a7dc75db39d81d17f95d0a7aa572bf5ae19f4db0e84221d2b2ef99921990565b600881036200032557507f1184e11836b4c36ad8238a340ecc0985eeba665327e33e9b0e3641027c27620d90565b600981036200035357507f0702ab83a135d7f55350ab1bfaa90babd8fc1d2b3e6a7215381a7b2213d6c5ce90565b600a81036200038157507f2eecc0de814cfd8c57ce882babb2e30d1da56621aef7a47f3291cffeaec26ad790565b600b8103620003af57507f280bc02145c155d5833585b6c7b08501055157dd30ce005319621dc462d33b4790565b600c8103620003dd57507f045132221d1fa0a7f4aed8acd2cbec1e2189b7732ccb2ec272b9c60f0d5afc5b90565b600d81036200040b57507f27f427ccbf58a44b1270abbe4eda6ba53bd6ac4d88cf1e00a13c4371ce71d36690565b600e81036200043957507f1617eaae5064f26e8f8a6493ae92bfded7fde71b65df1ca6d5dcec0df70b2cef90565b600f81036200046757507f20c6b400d0ea1b15435703c31c31ee63ad7ba5c8da66cec2796feacea575abca90565b601081036200049557507f09589ddb438723f53a8e57bdada7c5f8ed67e8fece3889a73618732965645eec90565b60118103620004c257507e64b6a738a5ff537db7b220f3394f0ecbd35bfd355c5425dc1166bf3236079b90565b60128103620004f057507f095de56281b1d5055e897c3574ff790d5ee81dbc5df784ad2d67795e557c9e9f90565b601381036200051e57507f11cf2e2887aa21963a6ec14289183efe4d4c60f14ecd3d6fe0beebdf855a9b6390565b601481036200054c57507f2b0f6fc0179fa65b6f73627c0e1e84c7374d2eaec44c9a48f2571393ea77bcbb90565b601581036200057a57507f16fdb637c2abf9c0f988dbf2fd64258c46fb6a273d537b2cf1603ea460b1327990565b60168103620005a857507f21bbd7e944f6124dad4c376df9cc12e7ca66e47dff703ff7cedb1a454edcf0ff90565b60178103620005d657507f2784f8220b1c963e468f590f137baaa1625b3b92a27ad9b6e84eb0d3454d996290565b601881036200060457507f16ace1a65b7534142f8cc1aad810b3d6a7a74ca905d9c275cb98ba57e509fc1090565b601981036200063257507f2328068c6a8c24265124debd8fe10d3f29f0665ea725a65e3638f6192a96a01390565b601a81036200066057507f2ddb991be1f028022411b4c4d2c22043e5e751c120736f00adf54acab1c9ac1490565b601b81036200068e57507f0113798410eaeb95056a464f70521eb58377c0155f2fe518a5594d38cc209cc090565b601c8103620006bc57507f202d1ae61526f0d0d01ef80fb5d4055a7af45721024c2c24cffd6a3798f54d5090565b601d8103620006ea57507f23ab323453748129f2765f79615022f5bebd6f4096a796300aab049a60b0f18790565b601e81036200071857507f1f15585f8947e378bcf8bd918716799da909acdb944c57150b1eb4565fda8aa090565b601f81036200074657507f1eb064b21055ac6a350cf41eb30e4ce2cb19680217df3a243617c2838185ad0690565b60200362000772577f25a90efc49af54a5b7154a6eaba978dcf04796b4984fe54be8d4ea8579e1f1e690565b60405162461bcd60e51b815260206004820152601360248201527f496e646578206f7574206f6620626f756e6473000000000000000000000000006044820152606490fdfe608080604052600436101561001357600080fd5b60003560e01c9081631633e3f514612dce575080631f79a1e914612d9d578063255a5d221461096f578063338c3bec1461095857806333d084bf1461093f57806338bf282e1461091e5780633e0223bf146108e1578063414a37ba146108a65780634e7eab6f1461084d5780634ecf518b1461080c5780635a129efe146107df5780636d9833e3146107b7578063808038e6146107835780638bb9385c1461063b57806390eeb02b1461061757806396cbc43a146105e0578063ba70f757146105ae578063c2b40ae414610582578063c56cda8f146103f1578063cd87a3b4146103d5578063d710442a1461029b578063e829558814610275578063ec7329591461023a578063ed33639f14610206578063f178e47c146101da578063f94bccd8146101735763fc7e9c6f1461014857600080fd5b3461016e57600060031936011261016e57602060035463ffffffff60405191831c168152f35b600080fd5b3461016e57602060031936011261016e57600435600052600760205260ff6040600020541660405160038210156101ab576020918152f35b7f4e487b7100000000000000000000000000000000000000000000000000000000600052602160045260246000fd5b3461016e57602060031936011261016e5760043560005260016020526020604060002054604051908152f35b3461016e57600060031936011261016e57602073ffffffffffffffffffffffffffffffffffffffff60005416604051908152f35b3461016e57600060031936011261016e5760206040517f2fe54c60d3acabf3343a35b6eba15db4821b340f76e741e2249685ed4899af6c8152f35b3461016e57602060031936011261016e576020610293600435613579565b604051908152f35b3461016e57606060031936011261016e576004356024359073ffffffffffffffffffffffffffffffffffffffff80831680930361016e576044359160ff831680930361016e578160085416330361036b576040516001916102fb82612e30565b80825260208201958652604082019485526000526009602052604060002090518155019251167fffffffffffffffffffffff00000000000000000000000000000000000000000074ff00000000000000000000000000000000000000008454935160a01b16921617179055600080f35b608460405162461bcd60e51b815260206004820152602160248201527f4f6e6c79206f776e65722063616e2063616c6c20746869732066756e6374696f60448201527f6e000000000000000000000000000000000000000000000000000000000000006064820152fd5b3461016e57600060031936011261016e57602060405160648152f35b3461016e57606060031936011261016e5760043567ffffffffffffffff811161016e57610422903690600401612f2a565b366043121561016e576040519061043882612e68565b60648236821161016e576024905b828210610572578460206104bb6101446104da61046289613bac565b919290966104cf73ffffffffffffffffffffffffffffffffffffffff60055416936104c56040519a8b998a987ff5c9d69e000000000000000000000000000000000000000000000000000000008a5260048a01906130a4565b60448801906130cc565b60c48601906130a4565b6101048401906130a4565b5afa90811561056657600091610537575b50156104f357005b606460405162461bcd60e51b815260206004820152601760248201527f696e76616c6964206272696467656f75742070726f6f660000000000000000006044820152fd5b610559915060203d60201161055f575b6105518183612e84565b810190613047565b816104eb565b503d610547565b6040513d6000823e3d90fd5b8135815260209182019101610446565b3461016e57602060031936011261016e5760043560005260026020526020604060002054604051908152f35b3461016e57600060031936011261016e5763ffffffff6003541660005260026020526020604060002054604051908152f35b3461016e57600060031936011261016e57602073ffffffffffffffffffffffffffffffffffffffff60035460401c16604051908152f35b3461016e57600060031936011261016e57602063ffffffff60035416604051908152f35b3461016e57602060031936011261016e5760043580600052600760205260ff6040600020541660038110156101ab5761071957303f333f036106d557806000526007602052604060002060017fffffffffffffffffffffffffffffffffffffffffffffffffffffffffffffff008254161790557ff3465f1ccaccf4decf86d59b4066bbd0a0ec98a0647882aa2c29cbf50da95754600080a2005b606460405162461bcd60e51b815260206004820152600a60248201527f6261642073656e646572000000000000000000000000000000000000000000006044820152fd5b608460405162461bcd60e51b815260206004820152602e60248201527f726563656976656420636f6d6d69746d656e7473206d75737420626520696e2060448201527f7468652049444c452073746174650000000000000000000000000000000000006064820152fd5b3461016e57600060031936011261016e57602073ffffffffffffffffffffffffffffffffffffffff60055416604051908152f35b3461016e57602060031936011261016e5760206107d56004356134a6565b6040519015158152f35b3461016e57602060031936011261016e5760206107d5600435600052600660205260ff6040600020541690565b3461016e57600060031936011261016e57602060405163ffffffff7f0000000000000000000000000000000000000000000000000000000000000000168152f35b3461016e57602060031936011261016e5760043560005260096020526060604060002060ff6001825492015460405192835273ffffffffffffffffffffffffffffffffffffffff8116602084015260a01c166040820152f35b3461016e57600060031936011261016e5760206040517f30644e72e131a029b85045b68181585d2833e84879b9709143e1f593f00000018152f35b3461016e57602060031936011261016e5760043573ffffffffffffffffffffffffffffffffffffffff8116810361016e576020903f604051908152f35b3461016e57604060031936011261016e5760206102936024356004356132e2565b3461016e5761095661095036612f48565b90613267565b005b3461016e5761095661096936612f48565b906131c7565b3461016e576101a060031936011261016e5760043567ffffffffffffffff811161016e576109a1903690600401612dff565b9060243567ffffffffffffffff811161016e576109c2903690600401612dff565b91909267ffffffffffffffff6044351161016e5736602360443501121561016e5767ffffffffffffffff604435600401351161016e573660246044356004013560061b60443501011161016e5760643567ffffffffffffffff811161016e57610a2f903690600401612dff565b949092366101041161016e57366101641161016e5767ffffffffffffffff610184351161016e573660236101843501121561016e5767ffffffffffffffff61018435600401351161016e5736602461018435600401356101843501011161016e57600060a43513612ccb575b610aa48361305f565b92610ab26040519485612e84565b8084526020840191368260051b82011161016e5780925b8260051b82018410612c565750505050610ae28461305f565b93610af06040519586612e84565b80855260208501368260051b84011161016e5782905b8260051b84018210612b975750505050610b256044356004013561305f565b91610b336040519384612e84565b60443560048101358452602401602084015b60246044356004013560061b60443501018210612b66575050610b678561305f565b94610b756040519687612e84565b80865260208601368260051b84011161016e5782905b8260051b84018210612a7e575050505060405192610ba884612e68565b60c4845b6101048210612a6e57505060405190610bc482612e68565b610124825b6101648210612a5e575050610bec36610184356004013560246101843501612ec5565b91610bf78451613c62565b92610c028351613c62565b918551808060011b0460021481151715611f315784518060011b9080820460021490151715611f3157808260011b018260011b11611f3157610c479160011b01613c62565b9660009960005b8851811015610cc657610c61818a613cfd565b5160200151610c70828a613cfd565b52610c7b818a613cfd565b516040015151610c8a8d613d11565b9c610c95908c613cfd565b52610ca0818a613cfd565b516040015160200151610cb28d613d11565b9c610cbd908c613cfd565b52600101610c4e565b508a9998979495969860005b8851811015610d4a57610ce5818a613cfd565b5160200151610cf4828a613cfd565b52610cff818a613cfd565b516040015151610d0e8d613d11565b9c610d19908c613cfd565b52610d24818a613cfd565b516040015160200151610d368d613d11565b9c610d41908c613cfd565b52600101610cd2565b508790610d6c610d9e8c610d728d610d6c8d6040519687956020870190613d3e565b90613d3e565b037fffffffffffffffffffffffffffffffffffffffffffffffffffffffffffffffe08101835282612e84565b60208151910120865160208801519060208110612a2e575b50036129ea57805192602082015160405194610dd186612e68565b85526020850152604051957f5d90c2d5000000000000000000000000000000000000000000000000000000008752604087600481735FC8d32690cc91D4c39d9d3abcBD16989F8757075af496871561056657610e7e976040916000916129cd575b5081517f2afb4927000000000000000000000000000000000000000000000000000000008152815160048201526020909101516024820152608435604482015297889081906064820190565b0381735FC8d32690cc91D4c39d9d3abcBD16989F8757075af4968715610566576000976129ac575b506040517fbc1b392d000000000000000000000000000000000000000000000000000000008152604081600481735FC8d32690cc91D4c39d9d3abcBD16989F8757075af49081156105665760009161298d575b50966040517fbc1b392d000000000000000000000000000000000000000000000000000000008152604081600481735FC8d32690cc91D4c39d9d3abcBD16989F8757075af49081156105665760009161296e575b50966040517fbc1b392d000000000000000000000000000000000000000000000000000000008152604081600481735FC8d32690cc91D4c39d9d3abcBD16989F8757075af49081156105665760009161294f575b50926040517fbc1b392d000000000000000000000000000000000000000000000000000000008152604081600481735FC8d32690cc91D4c39d9d3abcBD16989F8757075af490811561056657600091612930575b509560009a5b8d518c10156110e7576040611085918f6110168f8492613cfd565b510151906020825192015183519261102d84612e68565b8352602080840191825284517f9f422d99000000000000000000000000000000000000000000000000000000008152835160048201529201516024830152915160448201529051606482015291829081906084820190565b0381735FC8d32690cc91D4c39d9d3abcBD16989F8757075af48015610566576001916000916110b8575b509b019a610ffb565b6110da915060403d6040116110e0575b6110d28183612e84565b810190613b84565b8f6110af565b503d6110c8565b95949392918d918d60009c5b8d8c51111561116157604061110f918f6110168f918492613cfd565b0381735FC8d32690cc91D4c39d9d3abcBD16989F8757075af4801561056657600191600091611142575b509d019c6110f3565b61115b915060403d6040116110e0576110d28183612e84565b8f611139565b908b949392918d60009c5b8d8c5111156112d7576111e560408f6111888f91608092613cfd565b5101516020815191015182519161119e83612e68565b82526020820190815282517f5e20a7f10000000000000000000000000000000000000000000000000000000081529151600483015251602482015291829081906044820190565b0381735FC8d32690cc91D4c39d9d3abcBD16989F8757075af4801561056657611266926040926000926112b8575b5082517f9f422d9900000000000000000000000000000000000000000000000000000000815281516004820152602091820151602482015282516044820152910151606482015291829081906084820190565b0381735FC8d32690cc91D4c39d9d3abcBD16989F8757075af4801561056657600191600091611299575b509d019c61116c565b6112b2915060403d6040116110e0576110d28183612e84565b8f611290565b6112d0919250833d85116110e0576110d28183612e84565b9038611213565b8c9b969798999a9b60009c5b8d8c5111156114a7576112f68e8d613cfd565b51516040516113096020820180936130a4565b6040815261131681612e30565b519020600052600760205260ff6040600020541660038110156101ab5760010361143d5761136b60408f60208f918061135261135b9285613cfd565b51515193613cfd565b5151015182519161119e83612e68565b0381735FC8d32690cc91D4c39d9d3abcBD16989F8757075af48015610566576113eb926040926000926112b8575082517f9f422d9900000000000000000000000000000000000000000000000000000000815281516004820152602091820151602482015282516044820152910151606482015291829081906084820190565b0381735FC8d32690cc91D4c39d9d3abcBD16989F8757075af480156105665760019160009161141e575b509d019c6112e3565b611437915060403d6040116110e0576110d28183612e84565b8f611415565b608460405162461bcd60e51b815260206004820152602760248201527f76616c756520636f6d6d69746d656e7420686173206e6f74206265656e20726560448201527f63656976656421000000000000000000000000000000000000000000000000006064820152fd5b908c9b999a9b600060206040516114bd81612e68565b8281520152600060a43512156128fd576115037f30644e72e131a029b85045b68181585d59f76dc1c90770533b94bee1c90937886114fc60a435613077565b1115613d6b565b60a4356127c257506040517fbc1b392d000000000000000000000000000000000000000000000000000000008152604081600481735FC8d32690cc91D4c39d9d3abcBD16989F8757075af4908115610566576115aa916040916000916127a5575b50965b81517f5e20a7f100000000000000000000000000000000000000000000000000000000815281516004820152602090910151602482015291829081906044820190565b0381735FC8d32690cc91D4c39d9d3abcBD16989F8757075af480156105665761162a92604092600092612786575082517f9f422d9900000000000000000000000000000000000000000000000000000000815281516004820152602091820151602482015282516044820152910151606482015291829081906084820190565b0381735FC8d32690cc91D4c39d9d3abcBD16989F8757075af4928315610566576116ac93604092600091612769575b5082517f9f422d9900000000000000000000000000000000000000000000000000000000815281516004820152602091820151602482015282516044820152910151606482015292839081906084820190565b0381735FC8d32690cc91D4c39d9d3abcBD16989F8757075af491821561056657600092612743575b50604080517f5e20a7f10000000000000000000000000000000000000000000000000000000081528251600482015260209092015160248301528180604481015b0381735FC8d32690cc91D4c39d9d3abcBD16989F8757075af480156105665761179592604092600092612724575082517f9f422d9900000000000000000000000000000000000000000000000000000000815281516004820152602091820151602482015282516044820152910151606482015291829081906084820190565b0381735FC8d32690cc91D4c39d9d3abcBD16989F8757075af49283156105665761181693604092600091612707575082517f9f422d9900000000000000000000000000000000000000000000000000000000815281516004820152602091820151602482015282516044820152910151606482015292839081906084820190565b0381735FC8d32690cc91D4c39d9d3abcBD16989F8757075af4918215610566576000926126e6575b50815181511491826126d3575b50501561268f5761198660407f30644e72e131a029b85045b68181585d59f76dc1c90770533b94bee1c909378881519461188486612e68565b7f0f157aac3718c993ce6137d3c6ac9587bd11c47182cea2312d705dbc0093139d86527f143e7b940a7846293635d558bb3e76613ea5c1ddb57128d155fd48ba8d404cf76020870152602087519701518351976118e089612e68565b8852602088015261193a60208251920151610d7285519761190089612e68565b8489528260208a01528a519260208c01519588519687956020870152898601526060850152608084015260a08084015260c0830190613db6565b6020815191012006938151809381927f5e20a7f1000000000000000000000000000000000000000000000000000000008352600483019190916020806040830194805184520151910152565b0381735FC8d32690cc91D4c39d9d3abcBD16989F8757075af490811561056657611a0291604091600091612672575b5081517f2afb492700000000000000000000000000000000000000000000000000000000815281516004820152602090910151602482015261016435604482015291829081906064820190565b0381735FC8d32690cc91D4c39d9d3abcBD16989F8757075af493841561056657611a8494604092600091612655575b5082517f9f422d9900000000000000000000000000000000000000000000000000000000815281516004820152602091820151602482015282516044820152910151606482015293849081906084820190565b0381735FC8d32690cc91D4c39d9d3abcBD16989F8757075af49283156105665760009361262d575b50604080517f2afb49270000000000000000000000000000000000000000000000000000000081528251600482015260209092015160248301526044820192909252908180606481015b0381735FC8d32690cc91D4c39d9d3abcBD16989F8757075af4801561056657611b769260409260009261260e575082517f9f422d9900000000000000000000000000000000000000000000000000000000815281516004820152602091820151602482015282516044820152910151606482015291829081906084820190565b0381735FC8d32690cc91D4c39d9d3abcBD16989F8757075af4908115610566576000916125ef575b50516125ab57611bb0610104356134a6565b156125675760018451166124fd5760005b8351811015611c4057611bf06020611bd98387613cfd565b510151600052600660205260ff6040600020541690565b611bfc57600101611bc1565b606460405162461bcd60e51b815260206004820152601660248201527f496e70757420697320616c7265616479207370656e74000000000000000000006044820152fd5b50909260005b8351811015611c8a5780611c84611c5f60019387613cfd565b515160405190611c6e82612e4c565b6020611c7a858a613cfd565b51015182526131c7565b01611c46565b50838360005b8351811015611cd45780611cce611ca960019387613cfd565b515160405190611cb882612e4c565b6020611cc4858a613cfd565b5101518252613267565b01611c90565b50838360005b8351811015611d3057806020611cf260019387613cfd565b51015160005260066020526040600020827fffffffffffffffffffffffffffffffffffffffffffffffffffffffffffffff0082541617905501611cda565b506000918491845b8151851015611fca576020611d4d8684613cfd565b51015191600186018611611f31576020611d6a6001880183613cfd565b510151936003549463ffffffff611da2817f000000000000000000000000000000000000000000000000000000000000000016613e14565b1663ffffffff8760201c1614611f6057611dc990637fffffff8760219795971c16936132e2565b936001945b63ffffffff86169063ffffffff7f000000000000000000000000000000000000000000000000000000000000000016821015611e5e57637fffffff611e3d63ffffffff9360019384891615600014611e4b5780611e2a83613579565b92600052856020526040600020556132e2565b95821c169601169492611dce565b90600052836020526040600020546132e2565b9298949550509594915060035463ffffffff60018183160111611f31578063ffffffff6064816001817fffffffffffffffffffffffffffffffffffffffffffffffffffffffff000000009616011606169182911617600355600052600260205260406000205563ffffffff6002818360201c160111611f31577fffffffffffffffffffffffffffffffffffffffffffffffff00000000ffffffff67ffffffff00000000600263ffffffff6003549460201c160160201b16911617600355600281018111611f315760020193919290611d38565b7f4e487b7100000000000000000000000000000000000000000000000000000000600052601160045260246000fd5b608460405162461bcd60e51b815260206004820152603060248201527f4d65726b6c6520747265652069732066756c6c2e204e6f206d6f7265206c656160448201527f7665732063616e206265206164646564000000000000000000000000000000006064820152fd5b919060005b84518110156120445780611fe560019287613cfd565b5151604051611ff86020820180936130a4565b6040815261200581612e30565b5190206000526007602052604060002060027fffffffffffffffffffffffffffffffffffffffffffffffffffffffffffffff0082541617905501611fcf565b508260005b83518110156121b75773ffffffffffffffffffffffffffffffffffffffff60406120738387613cfd565b510151163f303f036121735773ffffffffffffffffffffffffffffffffffffffff60406120a08387613cfd565b510151169060806120b18287613cfd565b5101516040516120c56020820180936130a4565b604081526120d281612e30565b519020823b1561016e576000926024849260405195869384927f8bb9385c00000000000000000000000000000000000000000000000000000000845260048401525af180156105665761212a575b6001915001612049565b67ffffffffffffffff821161214457600191604052612120565b7f4e487b7100000000000000000000000000000000000000000000000000000000600052604160045260246000fd5b606460405162461bcd60e51b815260206004820152601f60248201527f64657374696e6174696f6e20636f6e747261637420697320696e76616c6964006044820152fd5b509060206121c482613cb1565b5101519063ffffffff60035460201c169163ffffffff7ffffffffffffffffffffffffffffffffffffffffffffffffffffffffffffffffe840111611f3157606061220d83613cb1565b510151907fe5b9fcee308349a880a3033e7bf8f0d7192658e7dbdaf7481ecc63f3d7addf03604051602081528061227163ffffffff7ffffffffffffffffffffffffffffffffffffffffffffffffffffffffffffffffe890116956020830190613db6565b0390a3602061227f82613ced565b5101519063ffffffff7fffffffffffffffffffffffffffffffffffffffffffffffffffffffffffffffff840111611f31577fffffffffffffffffffffffffffffffffffffffffffffffffffffffffffffffff60606122fd7fe5b9fcee308349a880a3033e7bf8f0d7192658e7dbdaf7481ecc63f3d7addf0393613ced565b5101519361232063ffffffff604051938493602085520116956020830190613db6565b0390a360005b82518110156123de57807f9492b98c43599380c36d44a3d4ad1edabc09151648e55ceb516f076df158a2136123b9608061236260019588613cfd565b51015160606123718589613cfd565b5101516020612380868a613cfd565b510151906123ca73ffffffffffffffffffffffffffffffffffffffff60406123a8898d613cfd565b5101511691604051958680966130a4565b60a0604086015260a0850190613db6565b91606084015260808301520390a101612326565b5060005b8151811015612428578060206123fa60019385613cfd565b5101517f9218fa47e982bf1ded9b6823b77dbac4a5db62fc73f8efc325c7de424a411802600080a2016123e2565b600060a4351261243457005b6084356000526009602052600060206040822060016040519161245683612e30565b80548352015461249273ffffffffffffffffffffffffffffffffffffffff9283831690604060ff8783019584875260a01c169101521515612ffc565b511660446124a160a435613077565b60405194859384927fa9059cbb00000000000000000000000000000000000000000000000000000000845233600485015260248401525af18015610566576124e557005b6109569060203d60201161055f576105518183612e84565b608460405162461bcd60e51b815260206004820152602160248201527f6f757470757473206d75737420626520696e206d756c7469706c6573206f662060448201527f32000000000000000000000000000000000000000000000000000000000000006064820152fd5b606460405162461bcd60e51b815260206004820152601360248201527f496e76616c6964206d65726b6c6520726f6f74000000000000000000000000006044820152fd5b606460405162461bcd60e51b815260206004820152601660248201527f7369676e6174757265206973206e6f742076616c6964000000000000000000006044820152fd5b612608915060403d6040116110e0576110d28183612e84565b85611b9e565b612626919250833d85116110e0576110d28183612e84565b9088611213565b60409193509161264c611af693833d85116110e0576110d28183612e84565b93915091611aac565b61266c9150833d85116110e0576110d28183612e84565b8a611a31565b6126899150823d84116110e0576110d28183612e84565b8a6119b5565b606460405162461bcd60e51b815260206004820152601460248201527f42616c616e636520436865636b204661696c65640000000000000000000000006044820152fd5b602091925081015191015114888061184b565b61270091925060403d6040116110e0576110d28183612e84565b908961183e565b61271e9150833d85116110e0576110d28183612e84565b8c611659565b61273c919250833d85116110e0576110d28183612e84565b908d611213565b611715919250612761604091823d84116110e0576110d28183612e84565b9291506116d4565b6127809150833d85116110e0576110d28183612e84565b8e611659565b61279e919250833d85116110e0576110d28183612e84565b908f611213565b6127bc9150823d84116110e0576110d28183612e84565b8f611564565b600060a43512156128cc576127d860a435613077565b7f30644e72e131a029b85045b68181585d59f76dc1c90770533b94bee1c909378881810311611f3157612879917f30644e72e131a029b85045b68181585d59f76dc1c90770533b94bee1c9093788604092810306905b825193849283927f2afb492700000000000000000000000000000000000000000000000000000000845260048401604090939291936020606082019580518352015160208201520152565b0381735FC8d32690cc91D4c39d9d3abcBD16989F8757075af4908115610566576115aa916040916000916128af575b5096611567565b6128c69150823d84116110e0576110d28183612e84565b8f6128a8565b6040612879917f30644e72e131a029b85045b68181585d59f76dc1c90770533b94bee1c909378860a435069061282e565b61292b7f30644e72e131a029b85045b68181585d59f76dc1c90770533b94bee1c909378860a4351115613d6b565b611503565b612949915060403d6040116110e0576110d28183612e84565b8d610ff5565b612968915060403d6040116110e0576110d28183612e84565b8c610fa1565b612987915060403d6040116110e0576110d28183612e84565b8b610f4d565b6129a6915060403d6040116110e0576110d28183612e84565b8a610ef9565b6129c691975060403d6040116110e0576110d28183612e84565b9589610ea6565b6129e49150823d84116110e0576110d28183612e84565b8b610e32565b606460405162461bcd60e51b815260206004820152601160248201527f486173686573206d757374206d617463680000000000000000000000000000006044820152fd5b7fffffffffffffffffffffffffffffffffffffffffffffffffffffffffffffffff9060200360031b1b1689610db6565b8135815260209182019101610bc9565b8135815260209182019101610bac565b813567ffffffffffffffff811161016e5760c081860136031261016e57604051918260a081011067ffffffffffffffff60a0850111176121445760a083016040528186013567ffffffffffffffff811161016e57612ae190369084890101612f2a565b8352858201602081810135908501526040013573ffffffffffffffffffffffffffffffffffffffff8116810361016e5760408401526060928383880101359267ffffffffffffffff841161016e57602094612b4286953690848c0101612f2a565b90830152612b576080918236918b0101612fb7565b90820152815201910190610b8b565b60408236031261016e5760206040918251612b8081612e4c565b612b8a3686612fb7565b8152815201910190610b45565b813567ffffffffffffffff811161016e5760a081860136031261016e576040519182608081011067ffffffffffffffff60808501111761214457608083016040528186013567ffffffffffffffff811161016e57612bfa90369084890101612f2a565b8352602082870101356020840152612c1736604084890101612fb7565b6040840152608082870101359267ffffffffffffffff841161016e57612c4660209493859436918a0101612f2a565b6060820152815201910190610b06565b833567ffffffffffffffff811161016e57820160808136031261016e5760405191612c8083612e30565b81359267ffffffffffffffff841161016e57612cbb60209493612ca7869536908301612f2a565b835284810135858401526040369101612fb7565b6040820152815201930192610ac9565b60843560005260096020526000602060408220600160405191612ced83612e30565b805483520154612d2973ffffffffffffffffffffffffffffffffffffffff9283831690604060ff8783019584875260a01c169101521515612ffc565b51166064604051809481937f23b872dd00000000000000000000000000000000000000000000000000000000835233600484015230602484015260a43560448401525af1801561056657612d7e575b50610a9b565b612d969060203d60201161055f576105518183612e84565b5086612d78565b3461016e57602060031936011261016e576004356000526006602052602060ff604060002054166040519015158152f35b3461016e57600060031936011261016e5760209073ffffffffffffffffffffffffffffffffffffffff600454168152f35b9181601f8401121561016e5782359167ffffffffffffffff831161016e576020808501948460051b01011161016e57565b6060810190811067ffffffffffffffff82111761214457604052565b6020810190811067ffffffffffffffff82111761214457604052565b6040810190811067ffffffffffffffff82111761214457604052565b90601f7fffffffffffffffffffffffffffffffffffffffffffffffffffffffffffffffe0910116810190811067ffffffffffffffff82111761214457604052565b92919267ffffffffffffffff82116121445760405191612f0d60207fffffffffffffffffffffffffffffffffffffffffffffffffffffffffffffffe0601f8401160184612e84565b82948184528183011161016e578281602093846000960137010152565b9080601f8301121561016e57816020612f4593359101612ec5565b90565b90604060031983011261016e5760043567ffffffffffffffff811161016e5782612f7491600401612f2a565b91806043121561016e5760405190612f8b82612e4c565b8160449160441161016e576024905b828210612fa75750505090565b8135815260209182019101612f9a565b9080601f8301121561016e5760405191612fd083612e68565b82906040810192831161016e57905b828210612fec5750505090565b8135815260209182019101612fdf565b1561300357565b606460405162461bcd60e51b815260206004820152601360248201527f4173736574206e6f7420737570706f72746564000000000000000000000000006044820152fd5b9081602091031261016e5751801515810361016e5790565b67ffffffffffffffff81116121445760051b60200190565b7f80000000000000000000000000000000000000000000000000000000000000008114611f315760000390565b6000915b600283106130b557505050565b6001908251815260208091019201920191906130a8565b906000916000915b6002808410156131195782518590835b838310613102575050505060206040600192019201920191906130d4565b6001908251815260208091019201920191906130e4565b5050505050565b90949392613152906131486101009461313e8561012081019a6130a4565b60408501906130cc565b60c08301906130a4565b01906000915b6001831061316557505050565b600190825181526020809101920192019190613158565b1561318357565b606460405162461bcd60e51b815260206004820152600d60248201527f696e76616c69642070726f6f66000000000000000000000000000000000000006044820152fd5b6131d2602091613bac565b919073ffffffffffffffffffffffffffffffffffffffff60035492613226604051978896879586947f43753b4d00000000000000000000000000000000000000000000000000000000865260048601613120565b039260401c165afa80156105665761324691600091613248575b5061317c565b565b613261915060203d60201161055f576105518183612e84565b38613240565b613272602091613bac565b919073ffffffffffffffffffffffffffffffffffffffff60045416916132c7604051968795869485947f43753b4d00000000000000000000000000000000000000000000000000000000865260048601613120565b03915afa80156105665761324691600091613248575061317c565b7f30644e72e131a029b85045b68181585d2833e84879b9709143e1f593f000000180821015613462578210156133f8576040519061331f82612e68565b604036833781526020918282015260008273ffffffffffffffffffffffffffffffffffffffff825416926040519384917f299e56600000000000000000000000000000000000000000000000000000000083526004830185905b600282106133df57505050816044915afa9283156133d257819361339e575b50505090565b9091809350813d83116133cb575b6133b68183612e84565b810103126133c8575051388080613398565b80fd5b503d6133ac565b50604051903d90823e3d90fd5b8251815288958895509283019260019092019101613379565b608460405162461bcd60e51b815260206004820152602160248201527f5f72696768742073686f756c6420626520696e7369646520746865206669656c60448201527f64000000000000000000000000000000000000000000000000000000000000006064820152fd5b606460405162461bcd60e51b815260206004820152602060248201527f5f6c6566742073686f756c6420626520696e7369646520746865206669656c646044820152fd5b80156135735760035460019163ffffffff9182168084805b6134ce575b505050505050600090565b15613564575b6000908481169081835260026020526040832054851461355b57859115613553575b168015613526577fffffffffffffffffffffffffffffffffffffffffffffffffffffffffffffffff0190856134be565b6024827f4e487b710000000000000000000000000000000000000000000000000000000081526011600452fd5b5060646134f6565b50505050505090565b81848216036134d457806134c3565b50600090565b806135a357507f2fe54c60d3acabf3343a35b6eba15db4821b340f76e741e2249685ed4899af6c90565b600181036135d057507f13e37f2d6cb86c78ccc1788607c2b199788c6bb0a615a21f2e7a8e88384222f890565b600281036135fd57507f217126fa352c326896e8c2803eec8fd63ad50cf65edfef27a41a9e32dc62276590565b6003810361362a57507f0e28a61a9b3e91007d5a9e3ada18e1b24d6d230c618388ee5df34cacd7397eee90565b6004810361365757507f27953447a6979839536badc5425ed15fadb0e292e9bc36f92f0aa5cfa501358790565b6005810361368457507f194191edbfb91d10f6a7afd315f33095410c7801c47175c2df6dc2cce0e3affc90565b600681036136b157507f1733dece17d71190516dbaf1927936fa643dc7079fc0cc731de9d6845a47741f90565b600781036136de57507f267855a7dc75db39d81d17f95d0a7aa572bf5ae19f4db0e84221d2b2ef99921990565b6008810361370b57507f1184e11836b4c36ad8238a340ecc0985eeba665327e33e9b0e3641027c27620d90565b6009810361373857507f0702ab83a135d7f55350ab1bfaa90babd8fc1d2b3e6a7215381a7b2213d6c5ce90565b600a810361376557507f2eecc0de814cfd8c57ce882babb2e30d1da56621aef7a47f3291cffeaec26ad790565b600b810361379257507f280bc02145c155d5833585b6c7b08501055157dd30ce005319621dc462d33b4790565b600c81036137bf57507f045132221d1fa0a7f4aed8acd2cbec1e2189b7732ccb2ec272b9c60f0d5afc5b90565b600d81036137ec57507f27f427ccbf58a44b1270abbe4eda6ba53bd6ac4d88cf1e00a13c4371ce71d36690565b600e810361381957507f1617eaae5064f26e8f8a6493ae92bfded7fde71b65df1ca6d5dcec0df70b2cef90565b600f810361384657507f20c6b400d0ea1b15435703c31c31ee63ad7ba5c8da66cec2796feacea575abca90565b6010810361387357507f09589ddb438723f53a8e57bdada7c5f8ed67e8fece3889a73618732965645eec90565b6011810361389f57507e64b6a738a5ff537db7b220f3394f0ecbd35bfd355c5425dc1166bf3236079b90565b601281036138cc57507f095de56281b1d5055e897c3574ff790d5ee81dbc5df784ad2d67795e557c9e9f90565b601381036138f957507f11cf2e2887aa21963a6ec14289183efe4d4c60f14ecd3d6fe0beebdf855a9b6390565b6014810361392657507f2b0f6fc0179fa65b6f73627c0e1e84c7374d2eaec44c9a48f2571393ea77bcbb90565b6015810361395357507f16fdb637c2abf9c0f988dbf2fd64258c46fb6a273d537b2cf1603ea460b1327990565b6016810361398057507f21bbd7e944f6124dad4c376df9cc12e7ca66e47dff703ff7cedb1a454edcf0ff90565b601781036139ad57507f2784f8220b1c963e468f590f137baaa1625b3b92a27ad9b6e84eb0d3454d996290565b601881036139da57507f16ace1a65b7534142f8cc1aad810b3d6a7a74ca905d9c275cb98ba57e509fc1090565b60198103613a0757507f2328068c6a8c24265124debd8fe10d3f29f0665ea725a65e3638f6192a96a01390565b601a8103613a3457507f2ddb991be1f028022411b4c4d2c22043e5e751c120736f00adf54acab1c9ac1490565b601b8103613a6157507f0113798410eaeb95056a464f70521eb58377c0155f2fe518a5594d38cc209cc090565b601c8103613a8e57507f202d1ae61526f0d0d01ef80fb5d4055a7af45721024c2c24cffd6a3798f54d5090565b601d8103613abb57507f23ab323453748129f2765f79615022f5bebd6f4096a796300aab049a60b0f18790565b601e8103613ae857507f1f15585f8947e378bcf8bd918716799da909acdb944c57150b1eb4565fda8aa090565b601f8103613b1557507f1eb064b21055ac6a350cf41eb30e4ce2cb19680217df3a243617c2838185ad0690565b602003613b40577f25a90efc49af54a5b7154a6eaba978dcf04796b4984fe54be8d4ea8579e1f1e690565b606460405162461bcd60e51b815260206004820152601360248201527f496e646578206f7574206f6620626f756e6473000000000000000000000000006044820152fd5b9081604091031261016e57602060405191613b9e83612e68565b805183520151602082015290565b604091825190613bbb82612e68565b833683378193805192613bcd84612e68565b60005b828110613c4657508394825194613be686612e68565b8336873785825191836020936101009182918101031261016e5783850151968501519460608101519360808201519260a08301519260c08101519160e0820151910151928887519701519389820152528682015252838201525282015252565b6020908351613c5481612e68565b843682378187015201613bd0565b90613c6c8261305f565b613c796040519182612e84565b8281527fffffffffffffffffffffffffffffffffffffffffffffffffffffffffffffffe0613ca7829461305f565b0190602036910137565b805115613cbe5760200190565b7f4e487b7100000000000000000000000000000000000000000000000000000000600052603260045260246000fd5b805160011015613cbe5760400190565b8051821015613cbe5760209160051b010190565b7fffffffffffffffffffffffffffffffffffffffffffffffffffffffffffffffff8114611f315760010190565b805160208092019160005b828110613d57575050505090565b835185529381019392810192600101613d49565b15613d7257565b606460405162461bcd60e51b815260206004820152602060248201527f56616c7565206d757374206e6f742062652067726561746572207468616e206e6044820152fd5b919082519283825260005b848110613e005750507fffffffffffffffffffffffffffffffffffffffffffffffffffffffffffffffe0601f8460006020809697860101520116010190565b602081830181015184830182015201613dc1565b8015613e345760ff8111611f31576001901b9063ffffffff8211611f3157565b5060019056fea2646970667358221220fe2b48896989165932b59c8ffd7df413291e9294ef6c95b5b6273e9cc8bcc29364736f6c63430008180033",
  "deployedBytecode": "0x608080604052600436101561001357600080fd5b60003560e01c9081631633e3f514612dce575080631f79a1e914612d9d578063255a5d221461096f578063338c3bec1461095857806333d084bf1461093f57806338bf282e1461091e5780633e0223bf146108e1578063414a37ba146108a65780634e7eab6f1461084d5780634ecf518b1461080c5780635a129efe146107df5780636d9833e3146107b7578063808038e6146107835780638bb9385c1461063b57806390eeb02b1461061757806396cbc43a146105e0578063ba70f757146105ae578063c2b40ae414610582578063c56cda8f146103f1578063cd87a3b4146103d5578063d710442a1461029b578063e829558814610275578063ec7329591461023a578063ed33639f14610206578063f178e47c146101da578063f94bccd8146101735763fc7e9c6f1461014857600080fd5b3461016e57600060031936011261016e57602060035463ffffffff60405191831c168152f35b600080fd5b3461016e57602060031936011261016e57600435600052600760205260ff6040600020541660405160038210156101ab576020918152f35b7f4e487b7100000000000000000000000000000000000000000000000000000000600052602160045260246000fd5b3461016e57602060031936011261016e5760043560005260016020526020604060002054604051908152f35b3461016e57600060031936011261016e57602073ffffffffffffffffffffffffffffffffffffffff60005416604051908152f35b3461016e57600060031936011261016e5760206040517f2fe54c60d3acabf3343a35b6eba15db4821b340f76e741e2249685ed4899af6c8152f35b3461016e57602060031936011261016e576020610293600435613579565b604051908152f35b3461016e57606060031936011261016e576004356024359073ffffffffffffffffffffffffffffffffffffffff80831680930361016e576044359160ff831680930361016e578160085416330361036b576040516001916102fb82612e30565b80825260208201958652604082019485526000526009602052604060002090518155019251167fffffffffffffffffffffff00000000000000000000000000000000000000000074ff00000000000000000000000000000000000000008454935160a01b16921617179055600080f35b608460405162461bcd60e51b815260206004820152602160248201527f4f6e6c79206f776e65722063616e2063616c6c20746869732066756e6374696f60448201527f6e000000000000000000000000000000000000000000000000000000000000006064820152fd5b3461016e57600060031936011261016e57602060405160648152f35b3461016e57606060031936011261016e5760043567ffffffffffffffff811161016e57610422903690600401612f2a565b366043121561016e576040519061043882612e68565b60648236821161016e576024905b828210610572578460206104bb6101446104da61046289613bac565b919290966104cf73ffffffffffffffffffffffffffffffffffffffff60055416936104c56040519a8b998a987ff5c9d69e000000000000000000000000000000000000000000000000000000008a5260048a01906130a4565b60448801906130cc565b60c48601906130a4565b6101048401906130a4565b5afa90811561056657600091610537575b50156104f357005b606460405162461bcd60e51b815260206004820152601760248201527f696e76616c6964206272696467656f75742070726f6f660000000000000000006044820152fd5b610559915060203d60201161055f575b6105518183612e84565b810190613047565b816104eb565b503d610547565b6040513d6000823e3d90fd5b8135815260209182019101610446565b3461016e57602060031936011261016e5760043560005260026020526020604060002054604051908152f35b3461016e57600060031936011261016e5763ffffffff6003541660005260026020526020604060002054604051908152f35b3461016e57600060031936011261016e57602073ffffffffffffffffffffffffffffffffffffffff60035460401c16604051908152f35b3461016e57600060031936011261016e57602063ffffffff60035416604051908152f35b3461016e57602060031936011261016e5760043580600052600760205260ff6040600020541660038110156101ab5761071957303f333f036106d557806000526007602052604060002060017fffffffffffffffffffffffffffffffffffffffffffffffffffffffffffffff008254161790557ff3465f1ccaccf4decf86d59b4066bbd0a0ec98a0647882aa2c29cbf50da95754600080a2005b606460405162461bcd60e51b815260206004820152600a60248201527f6261642073656e646572000000000000000000000000000000000000000000006044820152fd5b608460405162461bcd60e51b815260206004820152602e60248201527f726563656976656420636f6d6d69746d656e7473206d75737420626520696e2060448201527f7468652049444c452073746174650000000000000000000000000000000000006064820152fd5b3461016e57600060031936011261016e57602073ffffffffffffffffffffffffffffffffffffffff60055416604051908152f35b3461016e57602060031936011261016e5760206107d56004356134a6565b6040519015158152f35b3461016e57602060031936011261016e5760206107d5600435600052600660205260ff6040600020541690565b3461016e57600060031936011261016e57602060405163ffffffff7f0000000000000000000000000000000000000000000000000000000000000000168152f35b3461016e57602060031936011261016e5760043560005260096020526060604060002060ff6001825492015460405192835273ffffffffffffffffffffffffffffffffffffffff8116602084015260a01c166040820152f35b3461016e57600060031936011261016e5760206040517f30644e72e131a029b85045b68181585d2833e84879b9709143e1f593f00000018152f35b3461016e57602060031936011261016e5760043573ffffffffffffffffffffffffffffffffffffffff8116810361016e576020903f604051908152f35b3461016e57604060031936011261016e5760206102936024356004356132e2565b3461016e5761095661095036612f48565b90613267565b005b3461016e5761095661096936612f48565b906131c7565b3461016e576101a060031936011261016e5760043567ffffffffffffffff811161016e576109a1903690600401612dff565b9060243567ffffffffffffffff811161016e576109c2903690600401612dff565b91909267ffffffffffffffff6044351161016e5736602360443501121561016e5767ffffffffffffffff604435600401351161016e573660246044356004013560061b60443501011161016e5760643567ffffffffffffffff811161016e57610a2f903690600401612dff565b949092366101041161016e57366101641161016e5767ffffffffffffffff610184351161016e573660236101843501121561016e5767ffffffffffffffff61018435600401351161016e5736602461018435600401356101843501011161016e57600060a43513612ccb575b610aa48361305f565b92610ab26040519485612e84565b8084526020840191368260051b82011161016e5780925b8260051b82018410612c565750505050610ae28461305f565b93610af06040519586612e84565b80855260208501368260051b84011161016e5782905b8260051b84018210612b975750505050610b256044356004013561305f565b91610b336040519384612e84565b60443560048101358452602401602084015b60246044356004013560061b60443501018210612b66575050610b678561305f565b94610b756040519687612e84565b80865260208601368260051b84011161016e5782905b8260051b84018210612a7e575050505060405192610ba884612e68565b60c4845b6101048210612a6e57505060405190610bc482612e68565b610124825b6101648210612a5e575050610bec36610184356004013560246101843501612ec5565b91610bf78451613c62565b92610c028351613c62565b918551808060011b0460021481151715611f315784518060011b9080820460021490151715611f3157808260011b018260011b11611f3157610c479160011b01613c62565b9660009960005b8851811015610cc657610c61818a613cfd565b5160200151610c70828a613cfd565b52610c7b818a613cfd565b516040015151610c8a8d613d11565b9c610c95908c613cfd565b52610ca0818a613cfd565b516040015160200151610cb28d613d11565b9c610cbd908c613cfd565b52600101610c4e565b508a9998979495969860005b8851811015610d4a57610ce5818a613cfd565b5160200151610cf4828a613cfd565b52610cff818a613cfd565b516040015151610d0e8d613d11565b9c610d19908c613cfd565b52610d24818a613cfd565b516040015160200151610d368d613d11565b9c610d41908c613cfd565b52600101610cd2565b508790610d6c610d9e8c610d728d610d6c8d6040519687956020870190613d3e565b90613d3e565b037fffffffffffffffffffffffffffffffffffffffffffffffffffffffffffffffe08101835282612e84565b60208151910120865160208801519060208110612a2e575b50036129ea57805192602082015160405194610dd186612e68565b85526020850152604051957f5d90c2d500000000000000000000000000000000000000000000000000000000875260408760048173__$028df8f3248521475cae26bff5f27a8183$__5af496871561056657610e7e976040916000916129cd575b5081517f2afb4927000000000000000000000000000000000000000000000000000000008152815160048201526020909101516024820152608435604482015297889081906064820190565b038173__$028df8f3248521475cae26bff5f27a8183$__5af4968715610566576000976129ac575b506040517fbc1b392d00000000000000000000000000000000000000000000000000000000815260408160048173__$028df8f3248521475cae26bff5f27a8183$__5af49081156105665760009161298d575b50966040517fbc1b392d00000000000000000000000000000000000000000000000000000000815260408160048173__$028df8f3248521475cae26bff5f27a8183$__5af49081156105665760009161296e575b50966040517fbc1b392d00000000000000000000000000000000000000000000000000000000815260408160048173__$028df8f3248521475cae26bff5f27a8183$__5af49081156105665760009161294f575b50926040517fbc1b392d00000000000000000000000000000000000000000000000000000000815260408160048173__$028df8f3248521475cae26bff5f27a8183$__5af490811561056657600091612930575b509560009a5b8d518c10156110e7576040611085918f6110168f8492613cfd565b510151906020825192015183519261102d84612e68565b8352602080840191825284517f9f422d99000000000000000000000000000000000000000000000000000000008152835160048201529201516024830152915160448201529051606482015291829081906084820190565b038173__$028df8f3248521475cae26bff5f27a8183$__5af48015610566576001916000916110b8575b509b019a610ffb565b6110da915060403d6040116110e0575b6110d28183612e84565b810190613b84565b8f6110af565b503d6110c8565b95949392918d918d60009c5b8d8c51111561116157604061110f918f6110168f918492613cfd565b038173__$028df8f3248521475cae26bff5f27a8183$__5af4801561056657600191600091611142575b509d019c6110f3565b61115b915060403d6040116110e0576110d28183612e84565b8f611139565b908b949392918d60009c5b8d8c5111156112d7576111e560408f6111888f91608092613cfd565b5101516020815191015182519161119e83612e68565b82526020820190815282517f5e20a7f10000000000000000000000000000000000000000000000000000000081529151600483015251602482015291829081906044820190565b038173__$028df8f3248521475cae26bff5f27a8183$__5af4801561056657611266926040926000926112b8575b5082517f9f422d9900000000000000000000000000000000000000000000000000000000815281516004820152602091820151602482015282516044820152910151606482015291829081906084820190565b038173__$028df8f3248521475cae26bff5f27a8183$__5af4801561056657600191600091611299575b509d019c61116c565b6112b2915060403d6040116110e0576110d28183612e84565b8f611290565b6112d0919250833d85116110e0576110d28183612e84565b9038611213565b8c9b969798999a9b60009c5b8d8c5111156114a7576112f68e8d613cfd565b51516040516113096020820180936130a4565b6040815261131681612e30565b519020600052600760205260ff6040600020541660038110156101ab5760010361143d5761136b60408f60208f918061135261135b9285613cfd565b51515193613cfd565b5151015182519161119e83612e68565b038173__$028df8f3248521475cae26bff5f27a8183$__5af48015610566576113eb926040926000926112b8575082517f9f422d9900000000000000000000000000000000000000000000000000000000815281516004820152602091820151602482015282516044820152910151606482015291829081906084820190565b038173__$028df8f3248521475cae26bff5f27a8183$__5af480156105665760019160009161141e575b509d019c6112e3565b611437915060403d6040116110e0576110d28183612e84565b8f611415565b608460405162461bcd60e51b815260206004820152602760248201527f76616c756520636f6d6d69746d656e7420686173206e6f74206265656e20726560448201527f63656976656421000000000000000000000000000000000000000000000000006064820152fd5b908c9b999a9b600060206040516114bd81612e68565b8281520152600060a43512156128fd576115037f30644e72e131a029b85045b68181585d59f76dc1c90770533b94bee1c90937886114fc60a435613077565b1115613d6b565b60a4356127c257506040517fbc1b392d00000000000000000000000000000000000000000000000000000000815260408160048173__$028df8f3248521475cae26bff5f27a8183$__5af4908115610566576115aa916040916000916127a5575b50965b81517f5e20a7f100000000000000000000000000000000000000000000000000000000815281516004820152602090910151602482015291829081906044820190565b038173__$028df8f3248521475cae26bff5f27a8183$__5af480156105665761162a92604092600092612786575082517f9f422d9900000000000000000000000000000000000000000000000000000000815281516004820152602091820151602482015282516044820152910151606482015291829081906084820190565b038173__$028df8f3248521475cae26bff5f27a8183$__5af4928315610566576116ac93604092600091612769575b5082517f9f422d9900000000000000000000000000000000000000000000000000000000815281516004820152602091820151602482015282516044820152910151606482015292839081906084820190565b038173__$028df8f3248521475cae26bff5f27a8183$__5af491821561056657600092612743575b50604080517f5e20a7f10000000000000000000000000000000000000000000000000000000081528251600482015260209092015160248301528180604481015b038173__$028df8f3248521475cae26bff5f27a8183$__5af480156105665761179592604092600092612724575082517f9f422d9900000000000000000000000000000000000000000000000000000000815281516004820152602091820151602482015282516044820152910151606482015291829081906084820190565b038173__$028df8f3248521475cae26bff5f27a8183$__5af49283156105665761181693604092600091612707575082517f9f422d9900000000000000000000000000000000000000000000000000000000815281516004820152602091820151602482015282516044820152910151606482015292839081906084820190565b038173__$028df8f3248521475cae26bff5f27a8183$__5af4918215610566576000926126e6575b50815181511491826126d3575b50501561268f5761198660407f30644e72e131a029b85045b68181585d59f76dc1c90770533b94bee1c909378881519461188486612e68565b7f0f157aac3718c993ce6137d3c6ac9587bd11c47182cea2312d705dbc0093139d86527f143e7b940a7846293635d558bb3e76613ea5c1ddb57128d155fd48ba8d404cf76020870152602087519701518351976118e089612e68565b8852602088015261193a60208251920151610d7285519761190089612e68565b8489528260208a01528a519260208c01519588519687956020870152898601526060850152608084015260a08084015260c0830190613db6565b6020815191012006938151809381927f5e20a7f1000000000000000000000000000000000000000000000000000000008352600483019190916020806040830194805184520151910152565b038173__$028df8f3248521475cae26bff5f27a8183$__5af490811561056657611a0291604091600091612672575b5081517f2afb492700000000000000000000000000000000000000000000000000000000815281516004820152602090910151602482015261016435604482015291829081906064820190565b038173__$028df8f3248521475cae26bff5f27a8183$__5af493841561056657611a8494604092600091612655575b5082517f9f422d9900000000000000000000000000000000000000000000000000000000815281516004820152602091820151602482015282516044820152910151606482015293849081906084820190565b038173__$028df8f3248521475cae26bff5f27a8183$__5af49283156105665760009361262d575b50604080517f2afb49270000000000000000000000000000000000000000000000000000000081528251600482015260209092015160248301526044820192909252908180606481015b038173__$028df8f3248521475cae26bff5f27a8183$__5af4801561056657611b769260409260009261260e575082517f9f422d9900000000000000000000000000000000000000000000000000000000815281516004820152602091820151602482015282516044820152910151606482015291829081906084820190565b038173__$028df8f3248521475cae26bff5f27a8183$__5af4908115610566576000916125ef575b50516125ab57611bb0610104356134a6565b156125675760018451166124fd5760005b8351811015611c4057611bf06020611bd98387613cfd565b510151600052600660205260ff6040600020541690565b611bfc57600101611bc1565b606460405162461bcd60e51b815260206004820152601660248201527f496e70757420697320616c7265616479207370656e74000000000000000000006044820152fd5b50909260005b8351811015611c8a5780611c84611c5f60019387613cfd565b515160405190611c6e82612e4c565b6020611c7a858a613cfd565b51015182526131c7565b01611c46565b50838360005b8351811015611cd45780611cce611ca960019387613cfd565b515160405190611cb882612e4c565b6020611cc4858a613cfd565b5101518252613267565b01611c90565b50838360005b8351811015611d3057806020611cf260019387613cfd565b51015160005260066020526040600020827fffffffffffffffffffffffffffffffffffffffffffffffffffffffffffffff0082541617905501611cda565b506000918491845b8151851015611fca576020611d4d8684613cfd565b51015191600186018611611f31576020611d6a6001880183613cfd565b510151936003549463ffffffff611da2817f000000000000000000000000000000000000000000000000000000000000000016613e14565b1663ffffffff8760201c1614611f6057611dc990637fffffff8760219795971c16936132e2565b936001945b63ffffffff86169063ffffffff7f000000000000000000000000000000000000000000000000000000000000000016821015611e5e57637fffffff611e3d63ffffffff9360019384891615600014611e4b5780611e2a83613579565b92600052856020526040600020556132e2565b95821c169601169492611dce565b90600052836020526040600020546132e2565b9298949550509594915060035463ffffffff60018183160111611f31578063ffffffff6064816001817fffffffffffffffffffffffffffffffffffffffffffffffffffffffff000000009616011606169182911617600355600052600260205260406000205563ffffffff6002818360201c160111611f31577fffffffffffffffffffffffffffffffffffffffffffffffff00000000ffffffff67ffffffff00000000600263ffffffff6003549460201c160160201b16911617600355600281018111611f315760020193919290611d38565b7f4e487b7100000000000000000000000000000000000000000000000000000000600052601160045260246000fd5b608460405162461bcd60e51b815260206004820152603060248201527f4d65726b6c6520747265652069732066756c6c2e204e6f206d6f7265206c656160448201527f7665732063616e206265206164646564000000000000000000000000000000006064820152fd5b919060005b84518110156120445780611fe560019287613cfd565b5151604051611ff86020820180936130a4565b6040815261200581612e30565b5190206000526007602052604060002060027fffffffffffffffffffffffffffffffffffffffffffffffffffffffffffffff0082541617905501611fcf565b508260005b83518110156121b75773ffffffffffffffffffffffffffffffffffffffff60406120738387613cfd565b510151163f303f036121735773ffffffffffffffffffffffffffffffffffffffff60406120a08387613cfd565b510151169060806120b18287613cfd565b5101516040516120c56020820180936130a4565b604081526120d281612e30565b519020823b1561016e576000926024849260405195869384927f8bb9385c00000000000000000000000000000000000000000000000000000000845260048401525af180156105665761212a575b6001915001612049565b67ffffffffffffffff821161214457600191604052612120565b7f4e487b7100000000000000000000000000000000000000000000000000000000600052604160045260246000fd5b606460405162461bcd60e51b815260206004820152601f60248201527f64657374696e6174696f6e20636f6e747261637420697320696e76616c6964006044820152fd5b509060206121c482613cb1565b5101519063ffffffff60035460201c169163ffffffff7ffffffffffffffffffffffffffffffffffffffffffffffffffffffffffffffffe840111611f3157606061220d83613cb1565b510151907fe5b9fcee308349a880a3033e7bf8f0d7192658e7dbdaf7481ecc63f3d7addf03604051602081528061227163ffffffff7ffffffffffffffffffffffffffffffffffffffffffffffffffffffffffffffffe890116956020830190613db6565b0390a3602061227f82613ced565b5101519063ffffffff7fffffffffffffffffffffffffffffffffffffffffffffffffffffffffffffffff840111611f31577fffffffffffffffffffffffffffffffffffffffffffffffffffffffffffffffff60606122fd7fe5b9fcee308349a880a3033e7bf8f0d7192658e7dbdaf7481ecc63f3d7addf0393613ced565b5101519361232063ffffffff604051938493602085520116956020830190613db6565b0390a360005b82518110156123de57807f9492b98c43599380c36d44a3d4ad1edabc09151648e55ceb516f076df158a2136123b9608061236260019588613cfd565b51015160606123718589613cfd565b5101516020612380868a613cfd565b510151906123ca73ffffffffffffffffffffffffffffffffffffffff60406123a8898d613cfd565b5101511691604051958680966130a4565b60a0604086015260a0850190613db6565b91606084015260808301520390a101612326565b5060005b8151811015612428578060206123fa60019385613cfd565b5101517f9218fa47e982bf1ded9b6823b77dbac4a5db62fc73f8efc325c7de424a411802600080a2016123e2565b600060a4351261243457005b6084356000526009602052600060206040822060016040519161245683612e30565b80548352015461249273ffffffffffffffffffffffffffffffffffffffff9283831690604060ff8783019584875260a01c169101521515612ffc565b511660446124a160a435613077565b60405194859384927fa9059cbb00000000000000000000000000000000000000000000000000000000845233600485015260248401525af18015610566576124e557005b6109569060203d60201161055f576105518183612e84565b608460405162461bcd60e51b815260206004820152602160248201527f6f757470757473206d75737420626520696e206d756c7469706c6573206f662060448201527f32000000000000000000000000000000000000000000000000000000000000006064820152fd5b606460405162461bcd60e51b815260206004820152601360248201527f496e76616c6964206d65726b6c6520726f6f74000000000000000000000000006044820152fd5b606460405162461bcd60e51b815260206004820152601660248201527f7369676e6174757265206973206e6f742076616c6964000000000000000000006044820152fd5b612608915060403d6040116110e0576110d28183612e84565b85611b9e565b612626919250833d85116110e0576110d28183612e84565b9088611213565b60409193509161264c611af693833d85116110e0576110d28183612e84565b93915091611aac565b61266c9150833d85116110e0576110d28183612e84565b8a611a31565b6126899150823d84116110e0576110d28183612e84565b8a6119b5565b606460405162461bcd60e51b815260206004820152601460248201527f42616c616e636520436865636b204661696c65640000000000000000000000006044820152fd5b602091925081015191015114888061184b565b61270091925060403d6040116110e0576110d28183612e84565b908961183e565b61271e9150833d85116110e0576110d28183612e84565b8c611659565b61273c919250833d85116110e0576110d28183612e84565b908d611213565b611715919250612761604091823d84116110e0576110d28183612e84565b9291506116d4565b6127809150833d85116110e0576110d28183612e84565b8e611659565b61279e919250833d85116110e0576110d28183612e84565b908f611213565b6127bc9150823d84116110e0576110d28183612e84565b8f611564565b600060a43512156128cc576127d860a435613077565b7f30644e72e131a029b85045b68181585d59f76dc1c90770533b94bee1c909378881810311611f3157612879917f30644e72e131a029b85045b68181585d59f76dc1c90770533b94bee1c9093788604092810306905b825193849283927f2afb492700000000000000000000000000000000000000000000000000000000845260048401604090939291936020606082019580518352015160208201520152565b038173__$028df8f3248521475cae26bff5f27a8183$__5af4908115610566576115aa916040916000916128af575b5096611567565b6128c69150823d84116110e0576110d28183612e84565b8f6128a8565b6040612879917f30644e72e131a029b85045b68181585d59f76dc1c90770533b94bee1c909378860a435069061282e565b61292b7f30644e72e131a029b85045b68181585d59f76dc1c90770533b94bee1c909378860a4351115613d6b565b611503565b612949915060403d6040116110e0576110d28183612e84565b8d610ff5565b612968915060403d6040116110e0576110d28183612e84565b8c610fa1565b612987915060403d6040116110e0576110d28183612e84565b8b610f4d565b6129a6915060403d6040116110e0576110d28183612e84565b8a610ef9565b6129c691975060403d6040116110e0576110d28183612e84565b9589610ea6565b6129e49150823d84116110e0576110d28183612e84565b8b610e32565b606460405162461bcd60e51b815260206004820152601160248201527f486173686573206d757374206d617463680000000000000000000000000000006044820152fd5b7fffffffffffffffffffffffffffffffffffffffffffffffffffffffffffffffff9060200360031b1b1689610db6565b8135815260209182019101610bc9565b8135815260209182019101610bac565b813567ffffffffffffffff811161016e5760c081860136031261016e57604051918260a081011067ffffffffffffffff60a0850111176121445760a083016040528186013567ffffffffffffffff811161016e57612ae190369084890101612f2a565b8352858201602081810135908501526040013573ffffffffffffffffffffffffffffffffffffffff8116810361016e5760408401526060928383880101359267ffffffffffffffff841161016e57602094612b4286953690848c0101612f2a565b90830152612b576080918236918b0101612fb7565b90820152815201910190610b8b565b60408236031261016e5760206040918251612b8081612e4c565b612b8a3686612fb7565b8152815201910190610b45565b813567ffffffffffffffff811161016e5760a081860136031261016e576040519182608081011067ffffffffffffffff60808501111761214457608083016040528186013567ffffffffffffffff811161016e57612bfa90369084890101612f2a565b8352602082870101356020840152612c1736604084890101612fb7565b6040840152608082870101359267ffffffffffffffff841161016e57612c4660209493859436918a0101612f2a565b6060820152815201910190610b06565b833567ffffffffffffffff811161016e57820160808136031261016e5760405191612c8083612e30565b81359267ffffffffffffffff841161016e57612cbb60209493612ca7869536908301612f2a565b835284810135858401526040369101612fb7565b6040820152815201930192610ac9565b60843560005260096020526000602060408220600160405191612ced83612e30565b805483520154612d2973ffffffffffffffffffffffffffffffffffffffff9283831690604060ff8783019584875260a01c169101521515612ffc565b51166064604051809481937f23b872dd00000000000000000000000000000000000000000000000000000000835233600484015230602484015260a43560448401525af1801561056657612d7e575b50610a9b565b612d969060203d60201161055f576105518183612e84565b5086612d78565b3461016e57602060031936011261016e576004356000526006602052602060ff604060002054166040519015158152f35b3461016e57600060031936011261016e5760209073ffffffffffffffffffffffffffffffffffffffff600454168152f35b9181601f8401121561016e5782359167ffffffffffffffff831161016e576020808501948460051b01011161016e57565b6060810190811067ffffffffffffffff82111761214457604052565b6020810190811067ffffffffffffffff82111761214457604052565b6040810190811067ffffffffffffffff82111761214457604052565b90601f7fffffffffffffffffffffffffffffffffffffffffffffffffffffffffffffffe0910116810190811067ffffffffffffffff82111761214457604052565b92919267ffffffffffffffff82116121445760405191612f0d60207fffffffffffffffffffffffffffffffffffffffffffffffffffffffffffffffe0601f8401160184612e84565b82948184528183011161016e578281602093846000960137010152565b9080601f8301121561016e57816020612f4593359101612ec5565b90565b90604060031983011261016e5760043567ffffffffffffffff811161016e5782612f7491600401612f2a565b91806043121561016e5760405190612f8b82612e4c565b8160449160441161016e576024905b828210612fa75750505090565b8135815260209182019101612f9a565b9080601f8301121561016e5760405191612fd083612e68565b82906040810192831161016e57905b828210612fec5750505090565b8135815260209182019101612fdf565b1561300357565b606460405162461bcd60e51b815260206004820152601360248201527f4173736574206e6f7420737570706f72746564000000000000000000000000006044820152fd5b9081602091031261016e5751801515810361016e5790565b67ffffffffffffffff81116121445760051b60200190565b7f80000000000000000000000000000000000000000000000000000000000000008114611f315760000390565b6000915b600283106130b557505050565b6001908251815260208091019201920191906130a8565b906000916000915b6002808410156131195782518590835b838310613102575050505060206040600192019201920191906130d4565b6001908251815260208091019201920191906130e4565b5050505050565b90949392613152906131486101009461313e8561012081019a6130a4565b60408501906130cc565b60c08301906130a4565b01906000915b6001831061316557505050565b600190825181526020809101920192019190613158565b1561318357565b606460405162461bcd60e51b815260206004820152600d60248201527f696e76616c69642070726f6f66000000000000000000000000000000000000006044820152fd5b6131d2602091613bac565b919073ffffffffffffffffffffffffffffffffffffffff60035492613226604051978896879586947f43753b4d00000000000000000000000000000000000000000000000000000000865260048601613120565b039260401c165afa80156105665761324691600091613248575b5061317c565b565b613261915060203d60201161055f576105518183612e84565b38613240565b613272602091613bac565b919073ffffffffffffffffffffffffffffffffffffffff60045416916132c7604051968795869485947f43753b4d00000000000000000000000000000000000000000000000000000000865260048601613120565b03915afa80156105665761324691600091613248575061317c565b7f30644e72e131a029b85045b68181585d2833e84879b9709143e1f593f000000180821015613462578210156133f8576040519061331f82612e68565b604036833781526020918282015260008273ffffffffffffffffffffffffffffffffffffffff825416926040519384917f299e56600000000000000000000000000000000000000000000000000000000083526004830185905b600282106133df57505050816044915afa9283156133d257819361339e575b50505090565b9091809350813d83116133cb575b6133b68183612e84565b810103126133c8575051388080613398565b80fd5b503d6133ac565b50604051903d90823e3d90fd5b8251815288958895509283019260019092019101613379565b608460405162461bcd60e51b815260206004820152602160248201527f5f72696768742073686f756c6420626520696e7369646520746865206669656c60448201527f64000000000000000000000000000000000000000000000000000000000000006064820152fd5b606460405162461bcd60e51b815260206004820152602060248201527f5f6c6566742073686f756c6420626520696e7369646520746865206669656c646044820152fd5b80156135735760035460019163ffffffff9182168084805b6134ce575b505050505050600090565b15613564575b6000908481169081835260026020526040832054851461355b57859115613553575b168015613526577fffffffffffffffffffffffffffffffffffffffffffffffffffffffffffffffff0190856134be565b6024827f4e487b710000000000000000000000000000000000000000000000000000000081526011600452fd5b5060646134f6565b50505050505090565b81848216036134d457806134c3565b50600090565b806135a357507f2fe54c60d3acabf3343a35b6eba15db4821b340f76e741e2249685ed4899af6c90565b600181036135d057507f13e37f2d6cb86c78ccc1788607c2b199788c6bb0a615a21f2e7a8e88384222f890565b600281036135fd57507f217126fa352c326896e8c2803eec8fd63ad50cf65edfef27a41a9e32dc62276590565b6003810361362a57507f0e28a61a9b3e91007d5a9e3ada18e1b24d6d230c618388ee5df34cacd7397eee90565b6004810361365757507f27953447a6979839536badc5425ed15fadb0e292e9bc36f92f0aa5cfa501358790565b6005810361368457507f194191edbfb91d10f6a7afd315f33095410c7801c47175c2df6dc2cce0e3affc90565b600681036136b157507f1733dece17d71190516dbaf1927936fa643dc7079fc0cc731de9d6845a47741f90565b600781036136de57507f267855a7dc75db39d81d17f95d0a7aa572bf5ae19f4db0e84221d2b2ef99921990565b6008810361370b57507f1184e11836b4c36ad8238a340ecc0985eeba665327e33e9b0e3641027c27620d90565b6009810361373857507f0702ab83a135d7f55350ab1bfaa90babd8fc1d2b3e6a7215381a7b2213d6c5ce90565b600a810361376557507f2eecc0de814cfd8c57ce882babb2e30d1da56621aef7a47f3291cffeaec26ad790565b600b810361379257507f280bc02145c155d5833585b6c7b08501055157dd30ce005319621dc462d33b4790565b600c81036137bf57507f045132221d1fa0a7f4aed8acd2cbec1e2189b7732ccb2ec272b9c60f0d5afc5b90565b600d81036137ec57507f27f427ccbf58a44b1270abbe4eda6ba53bd6ac4d88cf1e00a13c4371ce71d36690565b600e810361381957507f1617eaae5064f26e8f8a6493ae92bfded7fde71b65df1ca6d5dcec0df70b2cef90565b600f810361384657507f20c6b400d0ea1b15435703c31c31ee63ad7ba5c8da66cec2796feacea575abca90565b6010810361387357507f09589ddb438723f53a8e57bdada7c5f8ed67e8fece3889a73618732965645eec90565b6011810361389f57507e64b6a738a5ff537db7b220f3394f0ecbd35bfd355c5425dc1166bf3236079b90565b601281036138cc57507f095de56281b1d5055e897c3574ff790d5ee81dbc5df784ad2d67795e557c9e9f90565b601381036138f957507f11cf2e2887aa21963a6ec14289183efe4d4c60f14ecd3d6fe0beebdf855a9b6390565b6014810361392657507f2b0f6fc0179fa65b6f73627c0e1e84c7374d2eaec44c9a48f2571393ea77bcbb90565b6015810361395357507f16fdb637c2abf9c0f988dbf2fd64258c46fb6a273d537b2cf1603ea460b1327990565b6016810361398057507f21bbd7e944f6124dad4c376df9cc12e7ca66e47dff703ff7cedb1a454edcf0ff90565b601781036139ad57507f2784f8220b1c963e468f590f137baaa1625b3b92a27ad9b6e84eb0d3454d996290565b601881036139da57507f16ace1a65b7534142f8cc1aad810b3d6a7a74ca905d9c275cb98ba57e509fc1090565b60198103613a0757507f2328068c6a8c24265124debd8fe10d3f29f0665ea725a65e3638f6192a96a01390565b601a8103613a3457507f2ddb991be1f028022411b4c4d2c22043e5e751c120736f00adf54acab1c9ac1490565b601b8103613a6157507f0113798410eaeb95056a464f70521eb58377c0155f2fe518a5594d38cc209cc090565b601c8103613a8e57507f202d1ae61526f0d0d01ef80fb5d4055a7af45721024c2c24cffd6a3798f54d5090565b601d8103613abb57507f23ab323453748129f2765f79615022f5bebd6f4096a796300aab049a60b0f18790565b601e8103613ae857507f1f15585f8947e378bcf8bd918716799da909acdb944c57150b1eb4565fda8aa090565b601f8103613b1557507f1eb064b21055ac6a350cf41eb30e4ce2cb19680217df3a243617c2838185ad0690565b602003613b40577f25a90efc49af54a5b7154a6eaba978dcf04796b4984fe54be8d4ea8579e1f1e690565b606460405162461bcd60e51b815260206004820152601360248201527f496e646578206f7574206f6620626f756e6473000000000000000000000000006044820152fd5b9081604091031261016e57602060405191613b9e83612e68565b805183520151602082015290565b604091825190613bbb82612e68565b833683378193805192613bcd84612e68565b60005b828110613c4657508394825194613be686612e68565b8336873785825191836020936101009182918101031261016e5783850151968501519460608101519360808201519260a08301519260c08101519160e0820151910151928887519701519389820152528682015252838201525282015252565b6020908351613c5481612e68565b843682378187015201613bd0565b90613c6c8261305f565b613c796040519182612e84565b8281527fffffffffffffffffffffffffffffffffffffffffffffffffffffffffffffffe0613ca7829461305f565b0190602036910137565b805115613cbe5760200190565b7f4e487b7100000000000000000000000000000000000000000000000000000000600052603260045260246000fd5b805160011015613cbe5760400190565b8051821015613cbe5760209160051b010190565b7fffffffffffffffffffffffffffffffffffffffffffffffffffffffffffffffff8114611f315760010190565b805160208092019160005b828110613d57575050505090565b835185529381019392810192600101613d49565b15613d7257565b606460405162461bcd60e51b815260206004820152602060248201527f56616c7565206d757374206e6f742062652067726561746572207468616e206e6044820152fd5b919082519283825260005b848110613e005750507fffffffffffffffffffffffffffffffffffffffffffffffffffffffffffffffe0601f8460006020809697860101520116010190565b602081830181015184830182015201613dc1565b8015613e345760ff8111611f31576001901b9063ffffffff8211611f3157565b5060019056fea2646970667358221220fe2b48896989165932b59c8ffd7df413291e9294ef6c95b5b6273e9cc8bcc29364736f6c63430008180033",
  "libraries": {
    "EdOnBN254": "0x5FC8d32690cc91D4c39d9d3abcBD16989F875707"
  },
  "devdoc": {
    "kind": "dev",
    "methods": {
      "getLastRoot()": {
        "details": "Returns the last root"
      },
      "hashLeftRight(bytes32,bytes32)": {
        "details": "Hash 2 tree leaves, returns Poseidon(_left, _right)"
      },
      "isKnownRoot(bytes32)": {
        "details": "Whether the root is present in the root history"
      },
      "zeros(uint256)": {
        "details": "provides Zero (Empty) elements for a MiMC MerkleTree. Up to 32 levels"
      }
    },
    "version": 1
  },
  "userdoc": {
    "kind": "user",
    "methods": {},
    "version": 1
  },
  "storageLayout": {
    "storage": [
      {
        "astId": 1479,
        "contract": "contracts/RK.sol:RK",
        "label": "hasher",
        "offset": 0,
        "slot": "0",
        "type": "t_contract(IHasher)1470"
      },
      {
        "astId": 1485,
        "contract": "contracts/RK.sol:RK",
        "label": "filledSubtrees",
        "offset": 0,
        "slot": "1",
        "type": "t_mapping(t_uint256,t_bytes32)"
      },
      {
        "astId": 1489,
        "contract": "contracts/RK.sol:RK",
        "label": "roots",
        "offset": 0,
        "slot": "2",
        "type": "t_mapping(t_uint256,t_bytes32)"
      },
      {
        "astId": 1495,
        "contract": "contracts/RK.sol:RK",
        "label": "currentRootIndex",
        "offset": 0,
        "slot": "3",
        "type": "t_uint32"
      },
      {
        "astId": 1498,
        "contract": "contracts/RK.sol:RK",
        "label": "nextIndex",
        "offset": 4,
        "slot": "3",
        "type": "t_uint32"
      },
      {
        "astId": 2149,
        "contract": "contracts/RK.sol:RK",
        "label": "spendVerifier",
        "offset": 8,
        "slot": "3",
        "type": "t_contract(SpendVerifier)4263"
      },
      {
        "astId": 2152,
        "contract": "contracts/RK.sol:RK",
        "label": "outputVerifier",
        "offset": 0,
        "slot": "4",
        "type": "t_contract(OutputVerifier)4166"
      },
      {
        "astId": 2155,
        "contract": "contracts/RK.sol:RK",
        "label": "bridgeoutVerifier",
        "offset": 0,
        "slot": "5",
        "type": "t_contract(BridgeoutVerifier)4069"
      },
      {
        "astId": 2159,
        "contract": "contracts/RK.sol:RK",
        "label": "nullifierHashes",
        "offset": 0,
        "slot": "6",
        "type": "t_mapping(t_uint256,t_bool)"
      },
      {
        "astId": 2164,
        "contract": "contracts/RK.sol:RK",
        "label": "receivedCommitments",
        "offset": 0,
        "slot": "7",
        "type": "t_mapping(t_bytes32,t_enum(ValueCommitmentState)2146)"
      },
      {
        "astId": 3556,
        "contract": "contracts/RK.sol:RK",
        "label": "owner",
        "offset": 0,
        "slot": "8",
        "type": "t_address"
      },
      {
        "astId": 3600,
        "contract": "contracts/RK.sol:RK",
        "label": "assetToAddress",
        "offset": 0,
        "slot": "9",
        "type": "t_mapping(t_uint256,t_struct(SupportedAsset)3595_storage)"
      }
    ],
    "types": {
      "t_address": {
        "encoding": "inplace",
        "label": "address",
        "numberOfBytes": "20"
      },
      "t_bool": {
        "encoding": "inplace",
        "label": "bool",
        "numberOfBytes": "1"
      },
      "t_bytes32": {
        "encoding": "inplace",
        "label": "bytes32",
        "numberOfBytes": "32"
      },
      "t_contract(BridgeoutVerifier)4069": {
        "encoding": "inplace",
        "label": "contract BridgeoutVerifier",
        "numberOfBytes": "20"
      },
      "t_contract(IHasher)1470": {
        "encoding": "inplace",
        "label": "contract IHasher",
        "numberOfBytes": "20"
      },
      "t_contract(OutputVerifier)4166": {
        "encoding": "inplace",
        "label": "contract OutputVerifier",
        "numberOfBytes": "20"
      },
      "t_contract(SpendVerifier)4263": {
        "encoding": "inplace",
        "label": "contract SpendVerifier",
        "numberOfBytes": "20"
      },
      "t_enum(ValueCommitmentState)2146": {
        "encoding": "inplace",
        "label": "enum MultiAssetShieldedPool.ValueCommitmentState",
        "numberOfBytes": "1"
      },
      "t_mapping(t_bytes32,t_enum(ValueCommitmentState)2146)": {
        "encoding": "mapping",
        "key": "t_bytes32",
        "label": "mapping(bytes32 => enum MultiAssetShieldedPool.ValueCommitmentState)",
        "numberOfBytes": "32",
        "value": "t_enum(ValueCommitmentState)2146"
      },
      "t_mapping(t_uint256,t_bool)": {
        "encoding": "mapping",
        "key": "t_uint256",
        "label": "mapping(uint256 => bool)",
        "numberOfBytes": "32",
        "value": "t_bool"
      },
      "t_mapping(t_uint256,t_bytes32)": {
        "encoding": "mapping",
        "key": "t_uint256",
        "label": "mapping(uint256 => bytes32)",
        "numberOfBytes": "32",
        "value": "t_bytes32"
      },
      "t_mapping(t_uint256,t_struct(SupportedAsset)3595_storage)": {
        "encoding": "mapping",
        "key": "t_uint256",
        "label": "mapping(uint256 => struct RK.SupportedAsset)",
        "numberOfBytes": "32",
        "value": "t_struct(SupportedAsset)3595_storage"
      },
      "t_struct(SupportedAsset)3595_storage": {
        "encoding": "inplace",
        "label": "struct RK.SupportedAsset",
        "members": [
          {
            "astId": 3590,
            "contract": "contracts/RK.sol:RK",
            "label": "assetId",
            "offset": 0,
            "slot": "0",
            "type": "t_uint256"
          },
          {
            "astId": 3592,
            "contract": "contracts/RK.sol:RK",
            "label": "assetAddress",
            "offset": 0,
            "slot": "1",
            "type": "t_address"
          },
          {
            "astId": 3594,
            "contract": "contracts/RK.sol:RK",
            "label": "decimals",
            "offset": 20,
            "slot": "1",
            "type": "t_uint8"
          }
        ],
        "numberOfBytes": "64"
      },
      "t_uint256": {
        "encoding": "inplace",
        "label": "uint256",
        "numberOfBytes": "32"
      },
      "t_uint32": {
        "encoding": "inplace",
        "label": "uint32",
        "numberOfBytes": "4"
      },
      "t_uint8": {
        "encoding": "inplace",
        "label": "uint8",
        "numberOfBytes": "1"
      }
    }
  }
}