{
  "address": "0xDc64a140Aa3E981100a9becA4E685f962f0cF6C9",
  "abi": [
    {
      "inputs": [
        {
          "internalType": "uint256[2]",
          "name": "_pA",
          "type": "uint256[2]"
        },
        {
          "internalType": "uint256[2][2]",
          "name": "_pB",
          "type": "uint256[2][2]"
        },
        {
          "internalType": "uint256[2]",
          "name": "_pC",
          "type": "uint256[2]"
        },
        {
          "internalType": "uint256[1]",
          "name": "_pubSignals",
          "type": "uint256[1]"
        }
      ],
      "name": "verifyProof",
      "outputs": [
        {
          "internalType": "bool",
          "name": "",
          "type": "bool"
        }
      ],
      "stateMutability": "view",
      "type": "function"
    }
  ],
  "transactionHash": "0x9050deee9a2a97737f13990e2d2c48897257871d6b8332f06f0bac9de852967b",
  "args": [],
  "numDeployments": 1,
  "solcInputHash": "1f002fe44102d1d3a2e3ab516ec76f01",
  "bytecode": "0x6080806040523461001657610452908161001c8239f35b600080fdfe6080604052600436101561001257600080fd5b6000803560e01c6343753b4d1461002857600080fd5b3461031f5761012090817ffffffffffffffffffffffffffffffffffffffffffffffffffffffffffffffffc36011261031f5761006336610322565b913660c41161031b5761007536610334565b9261012436811161031757906020946100f386936104006040526100a661010435916100a083610342565b35610342565b7f2e745ef7d0746a9924b7ee2664440ca0f2d409edb9befc74cb05f9a2ee9b97a86080527f06e07bd7c7ab33376b8676a9e1c44ac7200194e26b587f82e12d0d18048372af60a052610375565b61010093828593358452847f30644e72e131a029b85045b68181585d97816a916871ca8d3c208c16d87cfd47910135810306905260443561014052606435610160526084356101805260a4356101a0527f2d4d9aa7e302d9df41749d5507949d05dbea33fbb16c643b22f599a2be6df2e26101c0527f14bedd503c37ceb061d8ec60209fe345ce89830a19230301f076caff004d19266101e0527f0967032fcbf776d1afc985f88877f182d38480a653f2decaa9794cbc3bf3060c610200527f0e187847ad4c798374d0d6732bf501847dd68bc0e071241e0213bc7fc13db7ab610220527f304cfbd1e08a704a99f5e847d93f8c3caafddec46b7a0d379da69a4d112346a7610240527f1739c1b1a457a8c7313123d24d2f9192f896b7c63eea05a9d57f06547ad0cec8610260526080516102805260a0516102a0527f198e9393920d483a7260bfb731fb5d25f1aa493335a9e71297e485b7aef312c290816102c0527f1800deef121f1e76426a00665e5c4479674322d4f75edadd46debd5cd992f6ed806102e0527f090689d0585ff075ec9e99ad690c3395bc4b313370b38ef355acdadcd122975b9061030093828552867f12c85ea5db8c6deb4aab71808dcb408fe3d1e7690c43d37b4ce6cc0166fa7daa948561032052803561034052013561036052610380526103a0526103c0526103e0528160087ffffffffffffffffffffffffffffffffffffffffffffffffffffffffffffff8305a01fa9051168152f35b8380fd5b5080fd5b80fd5b9060049160441161032f57565b600080fd5b9060c4916101041161032f57565b7f30644e72e131a029b85045b68181585d2833e84879b9709143e1f593f0000001111561036b57565b6000805260206000f35b604051907f2abacd3082abfbc8e1396d046987118b77efc13d42dd5c5d44c077f01841fc1682527f20dcc62510dd97d3fac425e14c3779e06af17deae8b42483275d2359ae18880a6020830152604082019081527ffffffffffffffffffffffffffffffffffffffffffffffffffffffffffffff8306040836060816007855a01fa1561036b5760409260066080939284938451905260a05160608401525a01fa1561036b5756fea2646970667358221220f9b93ea068e3062419e33b6d344081f184e6af099a547d3749453c258132348e64736f6c63430008180033",
  "devdoc": {
    "kind": "dev",
    "methods": {},
    "version": 1
  },
  "userdoc": {
    "kind": "user",
    "methods": {},
    "version": 1
  },
  "storageLayout": {
    "storage": [],
    "types": null
  }
}