{
  "address": "0xC60B012f38017f512D2069aE3210Ad36075ACA6f",
  "abi": [
    {
      "inputs": [
        {
          "internalType": "address",
          "name": "_spendVerifier",
          "type": "address"
        },
        {
          "internalType": "address",
          "name": "_outputVerifier",
          "type": "address"
        },
        {
          "internalType": "address",
          "name": "_merkleHasher",
          "type": "address"
        },
        {
          "internalType": "address",
          "name": "_router",
          "type": "address"
        },
        {
          "internalType": "address[]",
          "name": "_allowlistedRemotes",
          "type": "address[]"
        },
        {
          "internalType": "uint64[]",
          "name": "_allowlistedChains",
          "type": "uint64[]"
        }
      ],
      "stateMutability": "nonpayable",
      "type": "constructor"
    },
    {
      "inputs": [
        {
          "internalType": "uint64",
          "name": "destinationChainSelector",
          "type": "uint64"
        }
      ],
      "name": "DestinationChainNotAllowlisted",
      "type": "error"
    },
    {
      "inputs": [
        {
          "internalType": "address",
          "name": "router",
          "type": "address"
        }
      ],
      "name": "InvalidRouter",
      "type": "error"
    },
    {
      "anonymous": false,
      "inputs": [
        {
          "indexed": true,
          "internalType": "uint256",
          "name": "commitment",
          "type": "uint256"
        },
        {
          "indexed": true,
          "internalType": "uint256",
          "name": "index",
          "type": "uint256"
        },
        {
          "indexed": false,
          "internalType": "bytes",
          "name": "encryptedOutput",
          "type": "bytes"
        }
      ],
      "name": "NewCommitment",
      "type": "event"
    },
    {
      "anonymous": false,
      "inputs": [
        {
          "indexed": true,
          "internalType": "uint256",
          "name": "nullifier",
          "type": "uint256"
        }
      ],
      "name": "NewNullifier",
      "type": "event"
    },
    {
      "inputs": [],
      "name": "FIELD_SIZE",
      "outputs": [
        {
          "internalType": "uint256",
          "name": "",
          "type": "uint256"
        }
      ],
      "stateMutability": "view",
      "type": "function"
    },
    {
      "inputs": [],
      "name": "ROOT_HISTORY_SIZE",
      "outputs": [
        {
          "internalType": "uint32",
          "name": "",
          "type": "uint32"
        }
      ],
      "stateMutability": "view",
      "type": "function"
    },
    {
      "inputs": [],
      "name": "ZERO_VALUE",
      "outputs": [
        {
          "internalType": "uint256",
          "name": "",
          "type": "uint256"
        }
      ],
      "stateMutability": "view",
      "type": "function"
    },
    {
      "inputs": [
        {
          "internalType": "uint256",
          "name": "_assetId",
          "type": "uint256"
        },
        {
          "internalType": "address",
          "name": "_assetAddress",
          "type": "address"
        },
        {
          "internalType": "uint8",
          "name": "_decimals",
          "type": "uint8"
        }
      ],
      "name": "addSupportedAsset",
      "outputs": [],
      "stateMutability": "nonpayable",
      "type": "function"
    },
    {
      "inputs": [
        {
          "internalType": "uint64",
          "name": "_chainId",
          "type": "uint64"
        },
        {
          "internalType": "bool",
          "name": "_allowed",
          "type": "bool"
        }
      ],
      "name": "allowlistChain",
      "outputs": [],
      "stateMutability": "nonpayable",
      "type": "function"
    },
    {
      "inputs": [
        {
          "internalType": "uint256",
          "name": "",
          "type": "uint256"
        }
      ],
      "name": "assetToAddress",
      "outputs": [
        {
          "internalType": "uint256",
          "name": "assetId",
          "type": "uint256"
        },
        {
          "internalType": "address",
          "name": "assetAddress",
          "type": "address"
        },
        {
          "internalType": "uint8",
          "name": "decimals",
          "type": "uint8"
        }
      ],
      "stateMutability": "view",
      "type": "function"
    },
    {
      "inputs": [
        {
          "components": [
            {
              "internalType": "bytes32",
              "name": "messageId",
              "type": "bytes32"
            },
            {
              "internalType": "uint64",
              "name": "sourceChainSelector",
              "type": "uint64"
            },
            {
              "internalType": "bytes",
              "name": "sender",
              "type": "bytes"
            },
            {
              "internalType": "bytes",
              "name": "data",
              "type": "bytes"
            },
            {
              "components": [
                {
                  "internalType": "address",
                  "name": "token",
                  "type": "address"
                },
                {
                  "internalType": "uint256",
                  "name": "amount",
                  "type": "uint256"
                }
              ],
              "internalType": "struct Client.EVMTokenAmount[]",
              "name": "destTokenAmounts",
              "type": "tuple[]"
            }
          ],
          "internalType": "struct Client.Any2EVMMessage",
          "name": "message",
          "type": "tuple"
        }
      ],
      "name": "ccipReceive",
      "outputs": [],
      "stateMutability": "nonpayable",
      "type": "function"
    },
    {
      "inputs": [],
      "name": "currentRootIndex",
      "outputs": [
        {
          "internalType": "uint32",
          "name": "",
          "type": "uint32"
        }
      ],
      "stateMutability": "view",
      "type": "function"
    },
    {
      "inputs": [
        {
          "components": [
            {
              "internalType": "bytes",
              "name": "proof",
              "type": "bytes"
            },
            {
              "internalType": "uint256",
              "name": "nullifier",
              "type": "uint256"
            },
            {
              "internalType": "uint256[2]",
              "name": "valueCommitment",
              "type": "uint256[2]"
            }
          ],
          "internalType": "struct CircomExample.SpendProof[]",
          "name": "_spendProof",
          "type": "tuple[]"
        },
        {
          "components": [
            {
              "internalType": "bytes",
              "name": "proof",
              "type": "bytes"
            },
            {
              "internalType": "uint256",
              "name": "commitment",
              "type": "uint256"
            },
            {
              "internalType": "uint256[2]",
              "name": "valueCommitment",
              "type": "uint256[2]"
            },
            {
              "internalType": "bytes",
              "name": "encryptedOutput",
              "type": "bytes"
            }
          ],
          "internalType": "struct CircomExample.OutputProof[]",
          "name": "_outputProofs",
          "type": "tuple[]"
        },
        {
          "internalType": "uint256[2]",
          "name": "_bpk",
          "type": "uint256[2]"
        },
        {
          "internalType": "uint256",
          "name": "_assetId",
          "type": "uint256"
        },
        {
          "internalType": "uint256",
          "name": "_depositAmount",
          "type": "uint256"
        },
        {
          "internalType": "uint256",
          "name": "_root",
          "type": "uint256"
        }
      ],
      "name": "deposit",
      "outputs": [],
      "stateMutability": "nonpayable",
      "type": "function"
    },
    {
      "inputs": [
        {
          "internalType": "uint256",
          "name": "",
          "type": "uint256"
        }
      ],
      "name": "filledSubtrees",
      "outputs": [
        {
          "internalType": "bytes32",
          "name": "",
          "type": "bytes32"
        }
      ],
      "stateMutability": "view",
      "type": "function"
    },
    {
      "inputs": [],
      "name": "getLastRoot",
      "outputs": [
        {
          "internalType": "bytes32",
          "name": "",
          "type": "bytes32"
        }
      ],
      "stateMutability": "view",
      "type": "function"
    },
    {
      "inputs": [],
      "name": "getRouter",
      "outputs": [
        {
          "internalType": "address",
          "name": "",
          "type": "address"
        }
      ],
      "stateMutability": "view",
      "type": "function"
    },
    {
      "inputs": [
        {
          "internalType": "bytes32",
          "name": "_left",
          "type": "bytes32"
        },
        {
          "internalType": "bytes32",
          "name": "_right",
          "type": "bytes32"
        }
      ],
      "name": "hashLeftRight",
      "outputs": [
        {
          "internalType": "bytes32",
          "name": "",
          "type": "bytes32"
        }
      ],
      "stateMutability": "view",
      "type": "function"
    },
    {
      "inputs": [],
      "name": "hasher",
      "outputs": [
        {
          "internalType": "contract IHasher",
          "name": "",
          "type": "address"
        }
      ],
      "stateMutability": "view",
      "type": "function"
    },
    {
      "inputs": [
        {
          "internalType": "bytes32",
          "name": "_root",
          "type": "bytes32"
        }
      ],
      "name": "isKnownRoot",
      "outputs": [
        {
          "internalType": "bool",
          "name": "",
          "type": "bool"
        }
      ],
      "stateMutability": "view",
      "type": "function"
    },
    {
      "inputs": [
        {
          "internalType": "uint256",
          "name": "_nullifierHash",
          "type": "uint256"
        }
      ],
      "name": "isSpent",
      "outputs": [
        {
          "internalType": "bool",
          "name": "",
          "type": "bool"
        }
      ],
      "stateMutability": "view",
      "type": "function"
    },
    {
      "inputs": [],
      "name": "levels",
      "outputs": [
        {
          "internalType": "uint32",
          "name": "",
          "type": "uint32"
        }
      ],
      "stateMutability": "view",
      "type": "function"
    },
    {
      "inputs": [],
      "name": "nextIndex",
      "outputs": [
        {
          "internalType": "uint32",
          "name": "",
          "type": "uint32"
        }
      ],
      "stateMutability": "view",
      "type": "function"
    },
    {
      "inputs": [
        {
          "internalType": "uint256",
          "name": "",
          "type": "uint256"
        }
      ],
      "name": "nullifierHashes",
      "outputs": [
        {
          "internalType": "bool",
          "name": "",
          "type": "bool"
        }
      ],
      "stateMutability": "view",
      "type": "function"
    },
    {
      "inputs": [],
      "name": "outputVerifier",
      "outputs": [
        {
          "internalType": "contract OutputVerifier",
          "name": "",
          "type": "address"
        }
      ],
      "stateMutability": "view",
      "type": "function"
    },
    {
      "inputs": [
        {
          "internalType": "bytes",
          "name": "_proof",
          "type": "bytes"
        },
        {
          "internalType": "uint256[1]",
          "name": "_pubSignals",
          "type": "uint256[1]"
        }
      ],
      "name": "outputVerify",
      "outputs": [],
      "stateMutability": "view",
      "type": "function"
    },
    {
      "inputs": [
        {
          "internalType": "uint256",
          "name": "",
          "type": "uint256"
        }
      ],
      "name": "roots",
      "outputs": [
        {
          "internalType": "bytes32",
          "name": "",
          "type": "bytes32"
        }
      ],
      "stateMutability": "view",
      "type": "function"
    },
    {
      "inputs": [],
      "name": "router",
      "outputs": [
        {
          "internalType": "contract IRouterClient",
          "name": "",
          "type": "address"
        }
      ],
      "stateMutability": "view",
      "type": "function"
    },
    {
      "inputs": [
        {
          "internalType": "uint256",
          "name": "_s",
          "type": "uint256"
        },
        {
          "internalType": "uint256[2]",
          "name": "_R",
          "type": "uint256[2]"
        },
        {
          "internalType": "uint256[2]",
          "name": "_A",
          "type": "uint256[2]"
        },
        {
          "internalType": "bytes",
          "name": "_message",
          "type": "bytes"
        }
      ],
      "name": "sigVerify",
      "outputs": [],
      "stateMutability": "view",
      "type": "function"
    },
    {
      "inputs": [],
      "name": "spendVerifier",
      "outputs": [
        {
          "internalType": "contract SpendVerifier",
          "name": "",
          "type": "address"
        }
      ],
      "stateMutability": "view",
      "type": "function"
    },
    {
      "inputs": [
        {
          "internalType": "bytes",
          "name": "_proof",
          "type": "bytes"
        },
        {
          "internalType": "uint256[1]",
          "name": "_pubSignals",
          "type": "uint256[1]"
        }
      ],
      "name": "spendVerify",
      "outputs": [],
      "stateMutability": "view",
      "type": "function"
    },
    {
      "inputs": [
        {
          "internalType": "bytes4",
          "name": "interfaceId",
          "type": "bytes4"
        }
      ],
      "name": "supportsInterface",
      "outputs": [
        {
          "internalType": "bool",
          "name": "",
          "type": "bool"
        }
      ],
      "stateMutability": "pure",
      "type": "function"
    },
    {
      "inputs": [
        {
          "components": [
            {
              "internalType": "bytes",
              "name": "proof",
              "type": "bytes"
            },
            {
              "internalType": "uint256",
              "name": "nullifier",
              "type": "uint256"
            },
            {
              "internalType": "uint256[2]",
              "name": "valueCommitment",
              "type": "uint256[2]"
            }
          ],
          "internalType": "struct CircomExample.SpendProof[]",
          "name": "_spendProof",
          "type": "tuple[]"
        },
        {
          "components": [
            {
              "internalType": "bytes",
              "name": "proof",
              "type": "bytes"
            },
            {
              "internalType": "uint256",
              "name": "commitment",
              "type": "uint256"
            },
            {
              "internalType": "uint256[2]",
              "name": "valueCommitment",
              "type": "uint256[2]"
            },
            {
              "internalType": "bytes",
              "name": "encryptedOutput",
              "type": "bytes"
            }
          ],
          "internalType": "struct CircomExample.OutputProof[]",
          "name": "_outputProofs",
          "type": "tuple[]"
        },
        {
          "internalType": "uint256[2]",
          "name": "_bpk",
          "type": "uint256[2]"
        },
        {
          "internalType": "uint256",
          "name": "_root",
          "type": "uint256"
        }
      ],
      "name": "transact",
      "outputs": [],
      "stateMutability": "nonpayable",
      "type": "function"
    },
    {
      "inputs": [
        {
          "internalType": "address",
          "name": "_remoteAddress",
          "type": "address"
        },
        {
          "internalType": "uint64",
          "name": "_chainId",
          "type": "uint64"
        },
        {
          "internalType": "bool",
          "name": "_allowed",
          "type": "bool"
        }
      ],
      "name": "updateAllowlistDestinationChain",
      "outputs": [],
      "stateMutability": "nonpayable",
      "type": "function"
    },
    {
      "inputs": [
        {
          "internalType": "uint256",
          "name": "_gasLimit",
          "type": "uint256"
        }
      ],
      "name": "updateGasLimit",
      "outputs": [],
      "stateMutability": "nonpayable",
      "type": "function"
    },
    {
      "inputs": [
        {
          "components": [
            {
              "internalType": "bytes",
              "name": "proof",
              "type": "bytes"
            },
            {
              "internalType": "uint256",
              "name": "nullifier",
              "type": "uint256"
            },
            {
              "internalType": "uint256[2]",
              "name": "valueCommitment",
              "type": "uint256[2]"
            }
          ],
          "internalType": "struct CircomExample.SpendProof[]",
          "name": "_spendProof",
          "type": "tuple[]"
        },
        {
          "components": [
            {
              "internalType": "bytes",
              "name": "proof",
              "type": "bytes"
            },
            {
              "internalType": "uint256",
              "name": "commitment",
              "type": "uint256"
            },
            {
              "internalType": "uint256[2]",
              "name": "valueCommitment",
              "type": "uint256[2]"
            },
            {
              "internalType": "bytes",
              "name": "encryptedOutput",
              "type": "bytes"
            }
          ],
          "internalType": "struct CircomExample.OutputProof[]",
          "name": "_outputProofs",
          "type": "tuple[]"
        },
        {
          "internalType": "uint256[2]",
          "name": "_bpk",
          "type": "uint256[2]"
        },
        {
          "internalType": "uint256",
          "name": "_assetId",
          "type": "uint256"
        },
        {
          "internalType": "uint256",
          "name": "_withdrawAmount",
          "type": "uint256"
        },
        {
          "internalType": "uint256",
          "name": "_root",
          "type": "uint256"
        }
      ],
      "name": "withdraw",
      "outputs": [],
      "stateMutability": "nonpayable",
      "type": "function"
    },
    {
      "inputs": [
        {
          "internalType": "uint256",
          "name": "i",
          "type": "uint256"
        }
      ],
      "name": "zeros",
      "outputs": [
        {
          "internalType": "bytes32",
          "name": "",
          "type": "bytes32"
        }
      ],
      "stateMutability": "pure",
      "type": "function"
    }
  ],
  "transactionHash": "0x7d05c81e6af43c44a5cc1d1bcac379dc8833ea0318b739343f3bf3a8e35bb7a4",
  "args": [
    "0x0492133d98f7B759a16E652C7c2ed37aac483300",
    "0x25b406faeD1AD18470664B6258675bDBCCc4Aa49",
    "0xe57CF63ec58FeF6600f192f4C6A5B9E3B22B6774",
    "0xD3b06cEbF099CE7DA4AcCf578aaebFDBd6e88a93",
    [],
    []
  ],
  "numDeployments": 1,
  "solcInputHash": "22f06309edced4e59d29b88876624a92",
  "bytecode": "0x60e0604052600380546001600160401b0319169055620c350060095534801561002757600080fd5b5060405161460638038061460683398101604081905261004691610a11565b8286868660058161005b565b60405180910390fd5b60208263ffffffff16106100b15760405162461bcd60e51b815260206004820152601e60248201527f5f6c6576656c732073686f756c64206265206c657373207468616e20333200006044820152606401610052565b63ffffffff91909116608052600080546001600160a01b03199081166001600160a01b039384161790915560038054600160401b600160e01b031916680100000000000000008785160217905560048054909116918416919091179055610116610225565b5050506001600160a01b038116610143576040516335fdcccd60e21b815260006004820152602401610052565b6001600160a01b0390811660a052831660c05260005b81518110156102065760016006600085848151811061017a5761017a610b15565b602002602001015185858151811061019457610194610b15565b60200260200101516040516020016101ca9291906001600160a01b039290921682526001600160401b0316602082015260400190565b60408051808303601f19018152918152815160209283012083529082019290925201600020805460ff1916911515919091179055600101610159565b5050600a80546001600160a01b0319163317905550610b2b9350505050565b60005b60805163ffffffff168163ffffffff16101561026f5761024d63ffffffff82166102af565b63ffffffff821660009081526001602081905260409091209190915501610228565b506080516102829063ffffffff166102af565b6000805260026020527fac33ff75c19e70fe83507db0d683fd3465c996598dc972688b7ace676c89077b55565b6000816000036102e057507f2fe54c60d3acabf3343a35b6eba15db4821b340f76e741e2249685ed4899af6c919050565b8160010361030f57507f13e37f2d6cb86c78ccc1788607c2b199788c6bb0a615a21f2e7a8e88384222f8919050565b8160020361033e57507f217126fa352c326896e8c2803eec8fd63ad50cf65edfef27a41a9e32dc622765919050565b8160030361036d57507f0e28a61a9b3e91007d5a9e3ada18e1b24d6d230c618388ee5df34cacd7397eee919050565b8160040361039c57507f27953447a6979839536badc5425ed15fadb0e292e9bc36f92f0aa5cfa5013587919050565b816005036103cb57507f194191edbfb91d10f6a7afd315f33095410c7801c47175c2df6dc2cce0e3affc919050565b816006036103fa57507f1733dece17d71190516dbaf1927936fa643dc7079fc0cc731de9d6845a47741f919050565b8160070361042957507f267855a7dc75db39d81d17f95d0a7aa572bf5ae19f4db0e84221d2b2ef999219919050565b8160080361045857507f1184e11836b4c36ad8238a340ecc0985eeba665327e33e9b0e3641027c27620d919050565b8160090361048757507f0702ab83a135d7f55350ab1bfaa90babd8fc1d2b3e6a7215381a7b2213d6c5ce919050565b81600a036104b657507f2eecc0de814cfd8c57ce882babb2e30d1da56621aef7a47f3291cffeaec26ad7919050565b81600b036104e557507f280bc02145c155d5833585b6c7b08501055157dd30ce005319621dc462d33b47919050565b81600c0361051457507f045132221d1fa0a7f4aed8acd2cbec1e2189b7732ccb2ec272b9c60f0d5afc5b919050565b81600d0361054357507f27f427ccbf58a44b1270abbe4eda6ba53bd6ac4d88cf1e00a13c4371ce71d366919050565b81600e0361057257507f1617eaae5064f26e8f8a6493ae92bfded7fde71b65df1ca6d5dcec0df70b2cef919050565b81600f036105a157507f20c6b400d0ea1b15435703c31c31ee63ad7ba5c8da66cec2796feacea575abca919050565b816010036105d057507f09589ddb438723f53a8e57bdada7c5f8ed67e8fece3889a73618732965645eec919050565b816011036105fe57507e64b6a738a5ff537db7b220f3394f0ecbd35bfd355c5425dc1166bf3236079b919050565b8160120361062d57507f095de56281b1d5055e897c3574ff790d5ee81dbc5df784ad2d67795e557c9e9f919050565b8160130361065c57507f11cf2e2887aa21963a6ec14289183efe4d4c60f14ecd3d6fe0beebdf855a9b63919050565b8160140361068b57507f2b0f6fc0179fa65b6f73627c0e1e84c7374d2eaec44c9a48f2571393ea77bcbb919050565b816015036106ba57507f16fdb637c2abf9c0f988dbf2fd64258c46fb6a273d537b2cf1603ea460b13279919050565b816016036106e957507f21bbd7e944f6124dad4c376df9cc12e7ca66e47dff703ff7cedb1a454edcf0ff919050565b8160170361071857507f2784f8220b1c963e468f590f137baaa1625b3b92a27ad9b6e84eb0d3454d9962919050565b8160180361074757507f16ace1a65b7534142f8cc1aad810b3d6a7a74ca905d9c275cb98ba57e509fc10919050565b8160190361077657507f2328068c6a8c24265124debd8fe10d3f29f0665ea725a65e3638f6192a96a013919050565b81601a036107a557507f2ddb991be1f028022411b4c4d2c22043e5e751c120736f00adf54acab1c9ac14919050565b81601b036107d457507f0113798410eaeb95056a464f70521eb58377c0155f2fe518a5594d38cc209cc0919050565b81601c0361080357507f202d1ae61526f0d0d01ef80fb5d4055a7af45721024c2c24cffd6a3798f54d50919050565b81601d0361083257507f23ab323453748129f2765f79615022f5bebd6f4096a796300aab049a60b0f187919050565b81601e0361086157507f1f15585f8947e378bcf8bd918716799da909acdb944c57150b1eb4565fda8aa0919050565b81601f0361089057507f1eb064b21055ac6a350cf41eb30e4ce2cb19680217df3a243617c2838185ad06919050565b816020036108bf57507f25a90efc49af54a5b7154a6eaba978dcf04796b4984fe54be8d4ea8579e1f1e6919050565b60405162461bcd60e51b815260206004820152601360248201527f496e646578206f7574206f6620626f756e6473000000000000000000000000006044820152606401610052565b919050565b80516001600160a01b038116811461090757600080fd5b634e487b7160e01b600052604160045260246000fd5b604051601f8201601f191681016001600160401b038111828210171561096157610961610923565b604052919050565b60006001600160401b0382111561098257610982610923565b5060051b60200190565b600082601f83011261099d57600080fd5b815160206109b26109ad83610969565b610939565b8083825260208201915060208460051b8701019350868411156109d457600080fd5b602086015b84811015610a065780516001600160401b03811681146109f95760008081fd5b83529183019183016109d9565b509695505050505050565b60008060008060008060c08789031215610a2a57600080fd5b610a338761090c565b95506020610a4281890161090c565b9550610a506040890161090c565b9450610a5e6060890161090c565b60808901519094506001600160401b0380821115610a7b57600080fd5b818a0191508a601f830112610a8f57600080fd5b8151610a9d6109ad82610969565b81815260059190911b8301840190848101908d831115610abc57600080fd5b938501935b82851015610ae157610ad28561090c565b82529385019390850190610ac1565b60a08d01519097509450505080831115610afa57600080fd5b5050610b0889828a0161098c565b9150509295509295509295565b634e487b7160e01b600052603260045260246000fd5b60805160a05160c051613a97610b6f60003960006105c50152600081816104910152610cef0152600081816103ad015281816129bb0152612a860152613a976000f3fe608060405234801561001057600080fd5b50600436106101f05760003560e01c806396cbc43a1161010f578063d710442a116100a2578063f178e47c11610071578063f178e47c1461058d578063f687d12a146105ad578063f887ea40146105c0578063fc7e9c6f146105e757600080fd5b8063d710442a14610520578063e829558814610533578063ec73295914610546578063ed33639f1461056d57600080fd5b8063c2b40ae4116100de578063c2b40ae4146104d2578063c4f7cba1146104f2578063cd87a3b414610505578063cfaa5b4f1461050d57600080fd5b806396cbc43a14610450578063a575c3a11461047c578063b0f479a11461048f578063ba70f757146104b557600080fd5b8063414a37ba116101875780635eae602a116101565780635eae602a146104075780636d9833e31461041a57806385572ffb1461042d57806390eeb02b1461044057600080fd5b8063414a37ba146102f45780634e7eab6f1461031b5780634ecf518b146103a85780635a129efe146103e457600080fd5b8063338c3bec116101c3578063338c3bec1461029a57806333d084bf146102ad57806338bf282e146102c05780633c025355146102e157600080fd5b806301ffc9a7146101f55780631633e3f51461021d5780631f79a1e9146102625780632ccc493514610285575b600080fd5b610208610203366004612c4f565b6105ff565b60405190151581526020015b60405180910390f35b60045461023d9073ffffffffffffffffffffffffffffffffffffffff1681565b60405173ffffffffffffffffffffffffffffffffffffffff9091168152602001610214565b610208610270366004612c98565b60056020526000908152604090205460ff1681565b610298610293366004612cf9565b610698565b005b6102986102a8366004612ea4565b61073a565b6102986102bb366004612ea4565b61084f565b6102d36102ce366004612f4e565b6108c1565b604051908152602001610214565b6102986102ef3660046131ca565b610a78565b6102d37f30644e72e131a029b85045b68181585d2833e84879b9709143e1f593f000000181565b610375610329366004612c98565b600b602052600090815260409020805460019091015473ffffffffffffffffffffffffffffffffffffffff81169074010000000000000000000000000000000000000000900460ff1683565b6040805193845273ffffffffffffffffffffffffffffffffffffffff909216602084015260ff1690820152606001610214565b6103cf7f000000000000000000000000000000000000000000000000000000000000000081565b60405163ffffffff9091168152602001610214565b6102086103f2366004612c98565b60009081526005602052604090205460ff1690565b610298610415366004613247565b610af5565b610208610428366004612c98565b610c59565b61029861043b3660046132d8565b610cd7565b6003546103cf9063ffffffff1681565b60035461023d9068010000000000000000900473ffffffffffffffffffffffffffffffffffffffff1681565b61029861048a366004613313565b610d5c565b7f000000000000000000000000000000000000000000000000000000000000000061023d565b60035463ffffffff166000908152600260205260409020546102d3565b6102d36104e0366004612c98565b60026020526000908152604090205481565b61029861050036600461337d565b6111e4565b6103cf606481565b61029861051b366004613247565b611236565b61029861052e3660046133b4565b6113a0565b6102d3610541366004612c98565b611448565b6102d37f2fe54c60d3acabf3343a35b6eba15db4821b340f76e741e2249685ed4899af6c81565b60005461023d9073ffffffffffffffffffffffffffffffffffffffff1681565b6102d361059b366004612c98565b60016020526000908152604090205481565b6102986105bb366004612c98565b611aa5565b61023d7f000000000000000000000000000000000000000000000000000000000000000081565b6003546103cf90640100000000900463ffffffff1681565b60007fffffffff0000000000000000000000000000000000000000000000000000000082167f85572ffb00000000000000000000000000000000000000000000000000000000148061069257507fffffffff0000000000000000000000000000000000000000000000000000000082167f01ffc9a700000000000000000000000000000000000000000000000000000000145b92915050565b6106a0611ab2565b806006600085856040516020016106e392919073ffffffffffffffffffffffffffffffffffffffff92909216825267ffffffffffffffff16602082015260400190565b60408051808303601f1901815291815281516020928301208352908201929092520160002080547fffffffffffffffffffffffffffffffffffffffffffffffffffffffffffffff0016911515919091179055505050565b600080600061074885611b41565b6003546040517f43753b4d000000000000000000000000000000000000000000000000000000008152939650919450925068010000000000000000900473ffffffffffffffffffffffffffffffffffffffff16906343753b4d906107b6908690869086908a9060040161341a565b602060405180830381865afa1580156107d3573d6000803e3d6000fd5b505050506040513d601f19601f820116820180604052508101906107f791906134c1565b6108485760405162461bcd60e51b815260206004820152600d60248201527f696e76616c69642070726f6f660000000000000000000000000000000000000060448201526064015b60405180910390fd5b5050505050565b600080600061085d85611b41565b600480546040517f43753b4d00000000000000000000000000000000000000000000000000000000815294975092955090935073ffffffffffffffffffffffffffffffffffffffff909116916343753b4d916107b6918791879187918b910161341a565b60007f30644e72e131a029b85045b68181585d2833e84879b9709143e1f593f000000183106109325760405162461bcd60e51b815260206004820181905260248201527f5f6c6566742073686f756c6420626520696e7369646520746865206669656c64604482015260640161083f565b7f30644e72e131a029b85045b68181585d2833e84879b9709143e1f593f000000182106109c75760405162461bcd60e51b815260206004820152602160248201527f5f72696768742073686f756c6420626520696e7369646520746865206669656c60448201527f6400000000000000000000000000000000000000000000000000000000000000606482015260840161083f565b6109cf612c04565b838152602081018390526000546040517f299e566000000000000000000000000000000000000000000000000000000000815273ffffffffffffffffffffffffffffffffffffffff9091169063299e566090610a2f90849060040161350d565b602060405180830381865afa158015610a4c573d6000803e3d6000fd5b505050506040513d601f19601f82011682018060405250810190610a70919061353e565b949350505050565b600073aaCd292B475c6Cd2543DaC465516Ab5d7fCd27f363bc1b392d6040518163ffffffff1660e01b81526004016040805180830381865af4158015610ac2573d6000803e3d6000fd5b505050506040513d601f19601f82011682018060405250810190610ae69190613557565b90506108488585858486611ba0565b6000838152600b602090815260409182902082516060810184528154815260019091015473ffffffffffffffffffffffffffffffffffffffff811692820183905274010000000000000000000000000000000000000000900460ff1692810192909252610ba45760405162461bcd60e51b815260206004820152601360248201527f4173736574206e6f7420737570706f7274656400000000000000000000000000604482015260640161083f565b610bb28787878787876124d6565b60208101516040517fa9059cbb0000000000000000000000000000000000000000000000000000000081523360048201526024810185905273ffffffffffffffffffffffffffffffffffffffff9091169063a9059cbb906044016020604051808303816000875af1158015610c2b573d6000803e3d6000fd5b505050506040513d601f19601f82011682018060405250810190610c4f91906134c1565b5050505050505050565b6000818103610c6a57506000919050565b60035463ffffffff16805b63ffffffff81166000908152600260205260409020548403610c9b575060019392505050565b8063ffffffff16600003610cad575060645b80610cb7816135b8565b9150508163ffffffff168163ffffffff1603610c75575060009392505050565b3373ffffffffffffffffffffffffffffffffffffffff7f00000000000000000000000000000000000000000000000000000000000000001614610d48576040517fd7f7333400000000000000000000000000000000000000000000000000000000815233600482015260240161083f565b610d59610d548261367e565b612690565b50565b6000604051806040016040528085600060028110610d7c57610d7c6134de565b6020020151815260200185600160028110610d9957610d996134de565b602002015181525090506000604051806040016040528085600060028110610dc357610dc36134de565b6020020151815260200185600160028110610de057610de06134de565b60209081029190910151909152835184820151835184840151604051959650600095610e0e958a9101613771565b604051602081830303815290604052905060007f30644e72e131a029b85045b68181585d59f76dc1c90770533b94bee1c9093788828051906020012060001c610e5791906137d6565b9050600073aaCd292B475c6Cd2543DaC465516Ab5d7fCd27f3635d90c2d56040518163ffffffff1660e01b81526004016040805180830381865af4158015610ea3573d6000803e3d6000fd5b505050506040513d601f19601f82011682018060405250810190610ec79190613557565b6040517f5e20a7f100000000000000000000000000000000000000000000000000000000815273aaCd292B475c6Cd2543DaC465516Ab5d7fCd27f391635e20a7f191610f1691906004016137ea565b6040805180830381865af4158015610f32573d6000803e3d6000fd5b505050506040513d601f19601f82011682018060405250810190610f569190613557565b6040517f2afb4927000000000000000000000000000000000000000000000000000000008152815160048201526020909101516024820152604481018a905273aaCd292B475c6Cd2543DaC465516Ab5d7fCd27f390632afb4927906064016040805180830381865af4158015610fd0573d6000803e3d6000fd5b505050506040513d601f19601f82011682018060405250810190610ff49190613557565b6040517f9f422d9900000000000000000000000000000000000000000000000000000000815273aaCd292B475c6Cd2543DaC465516Ab5d7fCd27f391639f422d999161104591908990600401613801565b6040805180830381865af4158015611061573d6000803e3d6000fd5b505050506040513d601f19601f820116820180604052508101906110859190613557565b6040517f2afb492700000000000000000000000000000000000000000000000000000000815285516004820152602086015160248201526044810184905273aaCd292B475c6Cd2543DaC465516Ab5d7fCd27f391639f422d99918390632afb4927906064016040805180830381865af4158015611106573d6000803e3d6000fd5b505050506040513d601f19601f8201168201806040525081019061112a9190613557565b6040518363ffffffff1660e01b8152600401611147929190613801565b6040805180830381865af4158015611163573d6000803e3d6000fd5b505050506040513d601f19601f820116820180604052508101906111879190613557565b8051909150156111d95760405162461bcd60e51b815260206004820152601660248201527f7369676e6174757265206973206e6f742076616c696400000000000000000000604482015260640161083f565b505050505050505050565b6111ec611ab2565b67ffffffffffffffff91909116600090815260086020526040902080547fffffffffffffffffffffffffffffffffffffffffffffffffffffffffffffff0016911515919091179055565b6000838152600b602090815260409182902082516060810184528154815260019091015473ffffffffffffffffffffffffffffffffffffffff811692820183905274010000000000000000000000000000000000000000900460ff16928101929092526112e55760405162461bcd60e51b815260206004820152601360248201527f4173736574206e6f7420737570706f7274656400000000000000000000000000604482015260640161083f565b60208101516040517f23b872dd0000000000000000000000000000000000000000000000000000000081523360048201523060248201526044810185905273ffffffffffffffffffffffffffffffffffffffff909116906323b872dd906064016020604051808303816000875af1158015611364573d6000803e3d6000fd5b505050506040513d601f19601f8201168201806040525081019061138891906134c1565b50611397878787878787612759565b50505050505050565b6113a8611ab2565b6040805160608101825284815273ffffffffffffffffffffffffffffffffffffffff938416602080830191825260ff9485168385019081526000978852600b9091529290952090518155935160019094018054915190921674010000000000000000000000000000000000000000027fffffffffffffffffffffff0000000000000000000000000000000000000000009091169390921692909217179055565b60008160000361147957507f2fe54c60d3acabf3343a35b6eba15db4821b340f76e741e2249685ed4899af6c919050565b816001036114a857507f13e37f2d6cb86c78ccc1788607c2b199788c6bb0a615a21f2e7a8e88384222f8919050565b816002036114d757507f217126fa352c326896e8c2803eec8fd63ad50cf65edfef27a41a9e32dc622765919050565b8160030361150657507f0e28a61a9b3e91007d5a9e3ada18e1b24d6d230c618388ee5df34cacd7397eee919050565b8160040361153557507f27953447a6979839536badc5425ed15fadb0e292e9bc36f92f0aa5cfa5013587919050565b8160050361156457507f194191edbfb91d10f6a7afd315f33095410c7801c47175c2df6dc2cce0e3affc919050565b8160060361159357507f1733dece17d71190516dbaf1927936fa643dc7079fc0cc731de9d6845a47741f919050565b816007036115c257507f267855a7dc75db39d81d17f95d0a7aa572bf5ae19f4db0e84221d2b2ef999219919050565b816008036115f157507f1184e11836b4c36ad8238a340ecc0985eeba665327e33e9b0e3641027c27620d919050565b8160090361162057507f0702ab83a135d7f55350ab1bfaa90babd8fc1d2b3e6a7215381a7b2213d6c5ce919050565b81600a0361164f57507f2eecc0de814cfd8c57ce882babb2e30d1da56621aef7a47f3291cffeaec26ad7919050565b81600b0361167e57507f280bc02145c155d5833585b6c7b08501055157dd30ce005319621dc462d33b47919050565b81600c036116ad57507f045132221d1fa0a7f4aed8acd2cbec1e2189b7732ccb2ec272b9c60f0d5afc5b919050565b81600d036116dc57507f27f427ccbf58a44b1270abbe4eda6ba53bd6ac4d88cf1e00a13c4371ce71d366919050565b81600e0361170b57507f1617eaae5064f26e8f8a6493ae92bfded7fde71b65df1ca6d5dcec0df70b2cef919050565b81600f0361173a57507f20c6b400d0ea1b15435703c31c31ee63ad7ba5c8da66cec2796feacea575abca919050565b8160100361176957507f09589ddb438723f53a8e57bdada7c5f8ed67e8fece3889a73618732965645eec919050565b8160110361179757507e64b6a738a5ff537db7b220f3394f0ecbd35bfd355c5425dc1166bf3236079b919050565b816012036117c657507f095de56281b1d5055e897c3574ff790d5ee81dbc5df784ad2d67795e557c9e9f919050565b816013036117f557507f11cf2e2887aa21963a6ec14289183efe4d4c60f14ecd3d6fe0beebdf855a9b63919050565b8160140361182457507f2b0f6fc0179fa65b6f73627c0e1e84c7374d2eaec44c9a48f2571393ea77bcbb919050565b8160150361185357507f16fdb637c2abf9c0f988dbf2fd64258c46fb6a273d537b2cf1603ea460b13279919050565b8160160361188257507f21bbd7e944f6124dad4c376df9cc12e7ca66e47dff703ff7cedb1a454edcf0ff919050565b816017036118b157507f2784f8220b1c963e468f590f137baaa1625b3b92a27ad9b6e84eb0d3454d9962919050565b816018036118e057507f16ace1a65b7534142f8cc1aad810b3d6a7a74ca905d9c275cb98ba57e509fc10919050565b8160190361190f57507f2328068c6a8c24265124debd8fe10d3f29f0665ea725a65e3638f6192a96a013919050565b81601a0361193e57507f2ddb991be1f028022411b4c4d2c22043e5e751c120736f00adf54acab1c9ac14919050565b81601b0361196d57507f0113798410eaeb95056a464f70521eb58377c0155f2fe518a5594d38cc209cc0919050565b81601c0361199c57507f202d1ae61526f0d0d01ef80fb5d4055a7af45721024c2c24cffd6a3798f54d50919050565b81601d036119cb57507f23ab323453748129f2765f79615022f5bebd6f4096a796300aab049a60b0f187919050565b81601e036119fa57507f1f15585f8947e378bcf8bd918716799da909acdb944c57150b1eb4565fda8aa0919050565b81601f03611a2957507f1eb064b21055ac6a350cf41eb30e4ce2cb19680217df3a243617c2838185ad06919050565b81602003611a5857507f25a90efc49af54a5b7154a6eaba978dcf04796b4984fe54be8d4ea8579e1f1e6919050565b60405162461bcd60e51b815260206004820152601360248201527f496e646578206f7574206f6620626f756e647300000000000000000000000000604482015260640161083f565b919050565b611aad611ab2565b600955565b600a5473ffffffffffffffffffffffffffffffffffffffff163314611b3f5760405162461bcd60e51b815260206004820152602160248201527f4f6e6c79206f776e65722063616e2063616c6c20746869732066756e6374696f60448201527f6e00000000000000000000000000000000000000000000000000000000000000606482015260840161083f565b565b611b49612c04565b611b51612c22565b611b59612c04565b83806020019051810190611b6d9190613827565b895160208b8101518b820193909352928a5281830193909352929092528082019290925291905285015283529193909250565b611ba981610c59565b611bf55760405162461bcd60e51b815260206004820152601360248201527f496e76616c6964206d65726b6c6520726f6f7400000000000000000000000000604482015260640161083f565b60005b8551811015611c8c57611c37868281518110611c1657611c166134de565b60200260200101516020015160009081526005602052604090205460ff1690565b15611c845760405162461bcd60e51b815260206004820152601660248201527f496e70757420697320616c7265616479207370656e7400000000000000000000604482015260640161083f565b600101611bf8565b50600073aaCd292B475c6Cd2543DaC465516Ab5d7fCd27f363bc1b392d6040518163ffffffff1660e01b81526004016040805180830381865af4158015611cd7573d6000803e3d6000fd5b505050506040513d601f19601f82011682018060405250810190611cfb9190613557565b905060005b8651811015611df7576000878281518110611d1d57611d1d6134de565b602002602001015190508273aaCd292B475c6Cd2543DaC465516Ab5d7fCd27f3639f422d99909160405180604001604052808560400151600060028110611d6657611d666134de565b602002015181526020018560400151600160028110611d8757611d876134de565b60200201518152506040518363ffffffff1660e01b8152600401611dac929190613801565b6040805180830381865af4158015611dc8573d6000803e3d6000fd5b505050506040513d601f19601f82011682018060405250810190611dec9190613557565b925050600101611d00565b5060005b8551811015611f80576000868281518110611e1857611e186134de565b602002602001015190508273aaCd292B475c6Cd2543DaC465516Ab5d7fCd27f3639f422d99909160405180604001604052808560400151600060028110611e6157611e616134de565b602002015181526020018560400151600160028110611e8257611e826134de565b602002015190526040517f5e20a7f100000000000000000000000000000000000000000000000000000000815273aaCd292B475c6Cd2543DaC465516Ab5d7fCd27f391635e20a7f191611ed891906004016137ea565b6040805180830381865af4158015611ef4573d6000803e3d6000fd5b505050506040513d601f19601f82011682018060405250810190611f189190613557565b6040518363ffffffff1660e01b8152600401611f35929190613801565b6040805180830381865af4158015611f51573d6000803e3d6000fd5b505050506040513d601f19601f82011682018060405250810190611f759190613557565b925050600101611dfb565b5083516040517f5e20a7f100000000000000000000000000000000000000000000000000000000815273aaCd292B475c6Cd2543DaC465516Ab5d7fCd27f390639f422d999084908390635e20a7f190611fdd908a906004016137ea565b6040805180830381865af4158015611ff9573d6000803e3d6000fd5b505050506040513d601f19601f8201168201806040525081019061201d9190613557565b6040518363ffffffff1660e01b815260040161203a929190613801565b6040805180830381865af4158015612056573d6000803e3d6000fd5b505050506040513d601f19601f8201168201806040525081019061207a9190613557565b51148015612185575060208401516040517f5e20a7f100000000000000000000000000000000000000000000000000000000815273aaCd292B475c6Cd2543DaC465516Ab5d7fCd27f390639f422d999084908390635e20a7f1906120e2908a906004016137ea565b6040805180830381865af41580156120fe573d6000803e3d6000fd5b505050506040513d601f19601f820116820180604052508101906121229190613557565b6040518363ffffffff1660e01b815260040161213f929190613801565b6040805180830381865af415801561215b573d6000803e3d6000fd5b505050506040513d601f19601f8201168201806040525081019061217f9190613557565b60200151145b6121d15760405162461bcd60e51b815260206004820152601a60248201527f53756d206f662076616c75657320697320696e636f7272656374000000000000604482015260640161083f565b60005b86518110156122245760008782815181106121f1576121f16134de565b6020026020010151905061221b81600001516040518060200160405280846020015181525061073a565b506001016121d4565b5060005b8551811015612278576000868281518110612245576122456134de565b6020026020010151905061226f81600001516040518060200160405280846020015181525061084f565b50600101612228565b5060005b86518110156122ef5760016005600089848151811061229d5761229d6134de565b602090810291909101810151810151825281019190915260400160002080547fffffffffffffffffffffffffffffffffffffffffffffffffffffffffffffff001691151591909117905560010161227c565b5084516002146123415760405162461bcd60e51b815260206004820152601a60248201527f6f6e6c792063616e20646f2032206f757470757470726f6f6673000000000000604482015260640161083f565b61234a85612952565b60035461236790600290640100000000900463ffffffff16613884565b63ffffffff1685600081518110612380576123806134de565b6020026020010151602001517fe5b9fcee308349a880a3033e7bf8f0d7192658e7dbdaf7481ecc63f3d7addf03876000815181106123c0576123c06134de565b6020026020010151606001516040516123d991906138a8565b60405180910390a36003546123fe90600190640100000000900463ffffffff16613884565b63ffffffff1685600181518110612417576124176134de565b6020026020010151602001517fe5b9fcee308349a880a3033e7bf8f0d7192658e7dbdaf7481ecc63f3d7addf0387600181518110612457576124576134de565b60200260200101516060015160405161247091906138a8565b60405180910390a360005b865181101561139757868181518110612496576124966134de565b6020026020010151602001517f9218fa47e982bf1ded9b6823b77dbac4a5db62fc73f8efc325c7de424a41180260405160405180910390a260010161247b565b600073aaCd292B475c6Cd2543DaC465516Ab5d7fCd27f3635d90c2d56040518163ffffffff1660e01b81526004016040805180830381865af4158015612520573d6000803e3d6000fd5b505050506040513d601f19601f820116820180604052508101906125449190613557565b6040517f2afb49270000000000000000000000000000000000000000000000000000000081528151600482015260209091015160248201526044810185905273aaCd292B475c6Cd2543DaC465516Ab5d7fCd27f390632afb4927906064016040805180830381865af41580156125be573d6000803e3d6000fd5b505050506040513d601f19601f820116820180604052508101906125e29190613557565b6040517f2afb49270000000000000000000000000000000000000000000000000000000081528151600482015260209091015160248201526044810184905273aaCd292B475c6Cd2543DaC465516Ab5d7fCd27f390632afb4927906064015b6040805180830381865af415801561265d573d6000803e3d6000fd5b505050506040513d601f19601f820116820180604052508101906126819190613557565b90506113978787878486611ba0565b806020015181604001518060200190518101906126ad91906138bb565b6040805173ffffffffffffffffffffffffffffffffffffffff831660208083019190915267ffffffffffffffff8516828401528251808303840181526060909201835281519181019190912060009081526006909152205460ff166127545760405162461bcd60e51b815260206004820152601860248201527f536f7572636520436861696e206e6f7420616c6c6f7765640000000000000000604482015260640161083f565b505050565b600073aaCd292B475c6Cd2543DaC465516Ab5d7fCd27f3635d90c2d56040518163ffffffff1660e01b81526004016040805180830381865af41580156127a3573d6000803e3d6000fd5b505050506040513d601f19601f820116820180604052508101906127c79190613557565b6040517f2afb49270000000000000000000000000000000000000000000000000000000081528151600482015260209091015160248201526044810185905273aaCd292B475c6Cd2543DaC465516Ab5d7fCd27f390632afb4927906064016040805180830381865af4158015612841573d6000803e3d6000fd5b505050506040513d601f19601f820116820180604052508101906128659190613557565b6040517f2afb49270000000000000000000000000000000000000000000000000000000081528151600482015260209091015160248201526044810184905273aaCd292B475c6Cd2543DaC465516Ab5d7fCd27f390632afb4927906064016040805180830381865af41580156128df573d6000803e3d6000fd5b505050506040513d601f19601f820116820180604052508101906129039190613557565b6040517f5e20a7f100000000000000000000000000000000000000000000000000000000815273aaCd292B475c6Cd2543DaC465516Ab5d7fCd27f391635e20a7f19161264191906004016137ea565b61299e81600081518110612968576129686134de565b60200260200101516020015160001b8260018151811061298a5761298a6134de565b60200260200101516020015160001b6129a2565b5050565b600354600090640100000000900463ffffffff166129e17f000000000000000000000000000000000000000000000000000000000000000060026139e9565b63ffffffff168163ffffffff1603612a615760405162461bcd60e51b815260206004820152603060248201527f4d65726b6c6520747265652069732066756c6c2e204e6f206d6f7265206c656160448201527f7665732063616e20626520616464656400000000000000000000000000000000606482015260840161083f565b6000612a6e6002836139fe565b90506000612a7c86866108c1565b905060008060015b7f000000000000000000000000000000000000000000000000000000000000000063ffffffff168163ffffffff161015612b3e57612ac3600286613a21565b63ffffffff16600003612b0157839250612ae28163ffffffff16611448565b63ffffffff821660009081526001602052604090208590559150612b1d565b63ffffffff811660009081526001602052604090205492508391505b612b2783836108c1565b9350612b346002866139fe565b9450600101612a84565b50600354600090606490612b599063ffffffff166001613a44565b612b639190613a21565b600380547fffffffffffffffffffffffffffffffffffffffffffffffffffffffff000000001663ffffffff83169081179091556000908152600260208190526040909120869055909150612bb8908790613a44565b6003805463ffffffff92909216640100000000027fffffffffffffffffffffffffffffffffffffffffffffffff00000000ffffffff909216919091179055509394505050505092915050565b60405180604001604052806002906020820280368337509192915050565b60405180604001604052806002905b612c39612c04565b815260200190600190039081612c315790505090565b600060208284031215612c6157600080fd5b81357fffffffff0000000000000000000000000000000000000000000000000000000081168114612c9157600080fd5b9392505050565b600060208284031215612caa57600080fd5b5035919050565b73ffffffffffffffffffffffffffffffffffffffff81168114610d5957600080fd5b803567ffffffffffffffff81168114611aa057600080fd5b8015158114610d5957600080fd5b600080600060608486031215612d0e57600080fd5b8335612d1981612cb1565b9250612d2760208501612cd3565b91506040840135612d3781612ceb565b809150509250925092565b7f4e487b7100000000000000000000000000000000000000000000000000000000600052604160045260246000fd5b6040516060810167ffffffffffffffff81118282101715612d9457612d94612d42565b60405290565b6040516080810167ffffffffffffffff81118282101715612d9457612d94612d42565b6040805190810167ffffffffffffffff81118282101715612d9457612d94612d42565b60405160a0810167ffffffffffffffff81118282101715612d9457612d94612d42565b604051601f8201601f1916810167ffffffffffffffff81118282101715612e2c57612e2c612d42565b604052919050565b600082601f830112612e4557600080fd5b813567ffffffffffffffff811115612e5f57612e5f612d42565b612e726020601f19601f84011601612e03565b818152846020838601011115612e8757600080fd5b816020850160208301376000918101602001919091529392505050565b60008060408385031215612eb757600080fd5b823567ffffffffffffffff80821115612ecf57600080fd5b612edb86838701612e34565b93506020915085603f860112612ef057600080fd5b604051602081018181108382111715612f0b57612f0b612d42565b80604052508091506040860187811115612f2457600080fd5b602087015b81811015612f405780358452928401928401612f29565b509497909650945050505050565b60008060408385031215612f6157600080fd5b50508035926020909101359150565b600067ffffffffffffffff821115612f8a57612f8a612d42565b5060051b60200190565b600082601f830112612fa557600080fd5b612fad612dbd565b806040840185811115612fbf57600080fd5b845b81811015612fd9578035845260209384019301612fc1565b509095945050505050565b600082601f830112612ff557600080fd5b8135602061300a61300583612f70565b612e03565b82815260059290921b8401810191818101908684111561302957600080fd5b8286015b848110156130c057803567ffffffffffffffff8082111561304e5760008081fd5b908801906080828b03601f190112156130675760008081fd5b61306f612d71565b86830135828111156130815760008081fd5b61308f8c8983870101612e34565b8252506040915081830135878201526130ab8b60608501612f94565b9181019190915284525091830191830161302d565b509695505050505050565b600082601f8301126130dc57600080fd5b813560206130ec61300583612f70565b82815260059290921b8401810191818101908684111561310b57600080fd5b8286015b848110156130c057803567ffffffffffffffff808211156131305760008081fd5b818901915060a080601f19848d0301121561314b5760008081fd5b613153612d9a565b87840135838111156131655760008081fd5b6131738d8a83880101612e34565b82525060408085013589830152606061318e8e828801612f94565b838301529285013592848411156131a757600091508182fd5b6131b58e8b86890101612e34565b9083015250865250505091830191830161310f565b60008060008060a085870312156131e057600080fd5b843567ffffffffffffffff808211156131f857600080fd5b61320488838901612fe4565b9550602087013591508082111561321a57600080fd5b50613227878288016130cb565b9350506132378660408701612f94565b9396929550929360800135925050565b60008060008060008060e0878903121561326057600080fd5b863567ffffffffffffffff8082111561327857600080fd5b6132848a838b01612fe4565b9750602089013591508082111561329a57600080fd5b506132a789828a016130cb565b9550506132b78860408901612f94565b93506080870135925060a0870135915060c087013590509295509295509295565b6000602082840312156132ea57600080fd5b813567ffffffffffffffff81111561330157600080fd5b820160a08185031215612c9157600080fd5b60008060008060c0858703121561332957600080fd5b8435935061333a8660208701612f94565b92506133498660608701612f94565b915060a085013567ffffffffffffffff81111561336557600080fd5b61337187828801612e34565b91505092959194509250565b6000806040838503121561339057600080fd5b61339983612cd3565b915060208301356133a981612ceb565b809150509250929050565b6000806000606084860312156133c957600080fd5b8335925060208401356133db81612cb1565b9150604084013560ff81168114612d3757600080fd5b8060005b60028110156134145781518452602093840193909101906001016133f5565b50505050565b610120810161342982876133f1565b60408083018660005b6002808210613441575061347c565b82518460005b83811015613465578251825260209283019290910190600101613447565b505050928401925060209190910190600101613432565b5050505061348d60c08301856133f1565b61010082018360005b60018110156134b5578151835260209283019290910190600101613496565b50505095945050505050565b6000602082840312156134d357600080fd5b8151612c9181612ceb565b7f4e487b7100000000000000000000000000000000000000000000000000000000600052603260045260246000fd5b60408101818360005b6002811015613535578151835260209283019290910190600101613516565b50505092915050565b60006020828403121561355057600080fd5b5051919050565b60006040828403121561356957600080fd5b613571612dbd565b82518152602083015160208201528091505092915050565b7f4e487b7100000000000000000000000000000000000000000000000000000000600052601160045260246000fd5b600063ffffffff8216806135ce576135ce613589565b7fffffffffffffffffffffffffffffffffffffffffffffffffffffffffffffffff0192915050565b600082601f83011261360757600080fd5b8135602061361761300583612f70565b82815260069290921b8401810191818101908684111561363657600080fd5b8286015b848110156130c057604081890312156136535760008081fd5b61365b612dbd565b813561366681612cb1565b8152818501358582015283529183019160400161363a565b600060a0823603121561369057600080fd5b613698612de0565b823581526136a860208401612cd3565b6020820152604083013567ffffffffffffffff808211156136c857600080fd5b6136d436838701612e34565b604084015260608501359150808211156136ed57600080fd5b6136f936838701612e34565b6060840152608085013591508082111561371257600080fd5b5061371f368286016135f6565b60808301525092915050565b6000815180845260005b8181101561375157602081850181015186830182015201613735565b506000602082860101526020601f19601f83011685010191505092915050565b85815284602082015283604082015282606082015260a06080820152600061379c60a083018461372b565b979650505050505050565b7f4e487b7100000000000000000000000000000000000000000000000000000000600052601260045260246000fd5b6000826137e5576137e56137a7565b500690565b815181526020808301519082015260408101610692565b825181526020808401518183015282516040830152820151606082015260808101612c91565b600080600080600080600080610100898b03121561384457600080fd5b505086516020880151604089015160608a015160808b015160a08c015160c08d015160e0909d0151959e949d50929b919a50985090965094509092509050565b63ffffffff8281168282160390808211156138a1576138a1613589565b5092915050565b602081526000612c91602083018461372b565b6000602082840312156138cd57600080fd5b8151612c9181612cb1565b600181815b80851115613915578163ffffffff048211156138fb576138fb613589565b8085161561390857918102915b93841c93908002906138dd565b509250929050565b60008261392c57506001610692565b8161393957506000610692565b816001811461394f57600281146139595761398a565b6001915050610692565b60ff84111561396a5761396a613589565b6001841b915063ffffffff82111561398457613984613589565b50610692565b5060208310610133831016604e8410600b84101617156139c1575081810a63ffffffff8111156139bc576139bc613589565b610692565b6139cb83836138d8565b8063ffffffff048211156139e1576139e1613589565b029392505050565b600063ffffffff610a7081851682851661391d565b600063ffffffff80841680613a1557613a156137a7565b92169190910492915050565b600063ffffffff80841680613a3857613a386137a7565b92169190910692915050565b63ffffffff8181168382160190808211156138a1576138a161358956fea26469706673582212202874f5f12b3ddbcd711397ce649ced672f2960858d43a13b36b7f91787fb1b4d64736f6c63430008190033",
  "deployedBytecode": "0x608060405234801561001057600080fd5b50600436106101f05760003560e01c806396cbc43a1161010f578063d710442a116100a2578063f178e47c11610071578063f178e47c1461058d578063f687d12a146105ad578063f887ea40146105c0578063fc7e9c6f146105e757600080fd5b8063d710442a14610520578063e829558814610533578063ec73295914610546578063ed33639f1461056d57600080fd5b8063c2b40ae4116100de578063c2b40ae4146104d2578063c4f7cba1146104f2578063cd87a3b414610505578063cfaa5b4f1461050d57600080fd5b806396cbc43a14610450578063a575c3a11461047c578063b0f479a11461048f578063ba70f757146104b557600080fd5b8063414a37ba116101875780635eae602a116101565780635eae602a146104075780636d9833e31461041a57806385572ffb1461042d57806390eeb02b1461044057600080fd5b8063414a37ba146102f45780634e7eab6f1461031b5780634ecf518b146103a85780635a129efe146103e457600080fd5b8063338c3bec116101c3578063338c3bec1461029a57806333d084bf146102ad57806338bf282e146102c05780633c025355146102e157600080fd5b806301ffc9a7146101f55780631633e3f51461021d5780631f79a1e9146102625780632ccc493514610285575b600080fd5b610208610203366004612c4f565b6105ff565b60405190151581526020015b60405180910390f35b60045461023d9073ffffffffffffffffffffffffffffffffffffffff1681565b60405173ffffffffffffffffffffffffffffffffffffffff9091168152602001610214565b610208610270366004612c98565b60056020526000908152604090205460ff1681565b610298610293366004612cf9565b610698565b005b6102986102a8366004612ea4565b61073a565b6102986102bb366004612ea4565b61084f565b6102d36102ce366004612f4e565b6108c1565b604051908152602001610214565b6102986102ef3660046131ca565b610a78565b6102d37f30644e72e131a029b85045b68181585d2833e84879b9709143e1f593f000000181565b610375610329366004612c98565b600b602052600090815260409020805460019091015473ffffffffffffffffffffffffffffffffffffffff81169074010000000000000000000000000000000000000000900460ff1683565b6040805193845273ffffffffffffffffffffffffffffffffffffffff909216602084015260ff1690820152606001610214565b6103cf7f000000000000000000000000000000000000000000000000000000000000000081565b60405163ffffffff9091168152602001610214565b6102086103f2366004612c98565b60009081526005602052604090205460ff1690565b610298610415366004613247565b610af5565b610208610428366004612c98565b610c59565b61029861043b3660046132d8565b610cd7565b6003546103cf9063ffffffff1681565b60035461023d9068010000000000000000900473ffffffffffffffffffffffffffffffffffffffff1681565b61029861048a366004613313565b610d5c565b7f000000000000000000000000000000000000000000000000000000000000000061023d565b60035463ffffffff166000908152600260205260409020546102d3565b6102d36104e0366004612c98565b60026020526000908152604090205481565b61029861050036600461337d565b6111e4565b6103cf606481565b61029861051b366004613247565b611236565b61029861052e3660046133b4565b6113a0565b6102d3610541366004612c98565b611448565b6102d37f2fe54c60d3acabf3343a35b6eba15db4821b340f76e741e2249685ed4899af6c81565b60005461023d9073ffffffffffffffffffffffffffffffffffffffff1681565b6102d361059b366004612c98565b60016020526000908152604090205481565b6102986105bb366004612c98565b611aa5565b61023d7f000000000000000000000000000000000000000000000000000000000000000081565b6003546103cf90640100000000900463ffffffff1681565b60007fffffffff0000000000000000000000000000000000000000000000000000000082167f85572ffb00000000000000000000000000000000000000000000000000000000148061069257507fffffffff0000000000000000000000000000000000000000000000000000000082167f01ffc9a700000000000000000000000000000000000000000000000000000000145b92915050565b6106a0611ab2565b806006600085856040516020016106e392919073ffffffffffffffffffffffffffffffffffffffff92909216825267ffffffffffffffff16602082015260400190565b60408051808303601f1901815291815281516020928301208352908201929092520160002080547fffffffffffffffffffffffffffffffffffffffffffffffffffffffffffffff0016911515919091179055505050565b600080600061074885611b41565b6003546040517f43753b4d000000000000000000000000000000000000000000000000000000008152939650919450925068010000000000000000900473ffffffffffffffffffffffffffffffffffffffff16906343753b4d906107b6908690869086908a9060040161341a565b602060405180830381865afa1580156107d3573d6000803e3d6000fd5b505050506040513d601f19601f820116820180604052508101906107f791906134c1565b6108485760405162461bcd60e51b815260206004820152600d60248201527f696e76616c69642070726f6f660000000000000000000000000000000000000060448201526064015b60405180910390fd5b5050505050565b600080600061085d85611b41565b600480546040517f43753b4d00000000000000000000000000000000000000000000000000000000815294975092955090935073ffffffffffffffffffffffffffffffffffffffff909116916343753b4d916107b6918791879187918b910161341a565b60007f30644e72e131a029b85045b68181585d2833e84879b9709143e1f593f000000183106109325760405162461bcd60e51b815260206004820181905260248201527f5f6c6566742073686f756c6420626520696e7369646520746865206669656c64604482015260640161083f565b7f30644e72e131a029b85045b68181585d2833e84879b9709143e1f593f000000182106109c75760405162461bcd60e51b815260206004820152602160248201527f5f72696768742073686f756c6420626520696e7369646520746865206669656c60448201527f6400000000000000000000000000000000000000000000000000000000000000606482015260840161083f565b6109cf612c04565b838152602081018390526000546040517f299e566000000000000000000000000000000000000000000000000000000000815273ffffffffffffffffffffffffffffffffffffffff9091169063299e566090610a2f90849060040161350d565b602060405180830381865afa158015610a4c573d6000803e3d6000fd5b505050506040513d601f19601f82011682018060405250810190610a70919061353e565b949350505050565b600073__$028df8f3248521475cae26bff5f27a8183$__63bc1b392d6040518163ffffffff1660e01b81526004016040805180830381865af4158015610ac2573d6000803e3d6000fd5b505050506040513d601f19601f82011682018060405250810190610ae69190613557565b90506108488585858486611ba0565b6000838152600b602090815260409182902082516060810184528154815260019091015473ffffffffffffffffffffffffffffffffffffffff811692820183905274010000000000000000000000000000000000000000900460ff1692810192909252610ba45760405162461bcd60e51b815260206004820152601360248201527f4173736574206e6f7420737570706f7274656400000000000000000000000000604482015260640161083f565b610bb28787878787876124d6565b60208101516040517fa9059cbb0000000000000000000000000000000000000000000000000000000081523360048201526024810185905273ffffffffffffffffffffffffffffffffffffffff9091169063a9059cbb906044016020604051808303816000875af1158015610c2b573d6000803e3d6000fd5b505050506040513d601f19601f82011682018060405250810190610c4f91906134c1565b5050505050505050565b6000818103610c6a57506000919050565b60035463ffffffff16805b63ffffffff81166000908152600260205260409020548403610c9b575060019392505050565b8063ffffffff16600003610cad575060645b80610cb7816135b8565b9150508163ffffffff168163ffffffff1603610c75575060009392505050565b3373ffffffffffffffffffffffffffffffffffffffff7f00000000000000000000000000000000000000000000000000000000000000001614610d48576040517fd7f7333400000000000000000000000000000000000000000000000000000000815233600482015260240161083f565b610d59610d548261367e565b612690565b50565b6000604051806040016040528085600060028110610d7c57610d7c6134de565b6020020151815260200185600160028110610d9957610d996134de565b602002015181525090506000604051806040016040528085600060028110610dc357610dc36134de565b6020020151815260200185600160028110610de057610de06134de565b60209081029190910151909152835184820151835184840151604051959650600095610e0e958a9101613771565b604051602081830303815290604052905060007f30644e72e131a029b85045b68181585d59f76dc1c90770533b94bee1c9093788828051906020012060001c610e5791906137d6565b9050600073__$028df8f3248521475cae26bff5f27a8183$__635d90c2d56040518163ffffffff1660e01b81526004016040805180830381865af4158015610ea3573d6000803e3d6000fd5b505050506040513d601f19601f82011682018060405250810190610ec79190613557565b6040517f5e20a7f100000000000000000000000000000000000000000000000000000000815273__$028df8f3248521475cae26bff5f27a8183$__91635e20a7f191610f1691906004016137ea565b6040805180830381865af4158015610f32573d6000803e3d6000fd5b505050506040513d601f19601f82011682018060405250810190610f569190613557565b6040517f2afb4927000000000000000000000000000000000000000000000000000000008152815160048201526020909101516024820152604481018a905273__$028df8f3248521475cae26bff5f27a8183$__90632afb4927906064016040805180830381865af4158015610fd0573d6000803e3d6000fd5b505050506040513d601f19601f82011682018060405250810190610ff49190613557565b6040517f9f422d9900000000000000000000000000000000000000000000000000000000815273__$028df8f3248521475cae26bff5f27a8183$__91639f422d999161104591908990600401613801565b6040805180830381865af4158015611061573d6000803e3d6000fd5b505050506040513d601f19601f820116820180604052508101906110859190613557565b6040517f2afb492700000000000000000000000000000000000000000000000000000000815285516004820152602086015160248201526044810184905273__$028df8f3248521475cae26bff5f27a8183$__91639f422d99918390632afb4927906064016040805180830381865af4158015611106573d6000803e3d6000fd5b505050506040513d601f19601f8201168201806040525081019061112a9190613557565b6040518363ffffffff1660e01b8152600401611147929190613801565b6040805180830381865af4158015611163573d6000803e3d6000fd5b505050506040513d601f19601f820116820180604052508101906111879190613557565b8051909150156111d95760405162461bcd60e51b815260206004820152601660248201527f7369676e6174757265206973206e6f742076616c696400000000000000000000604482015260640161083f565b505050505050505050565b6111ec611ab2565b67ffffffffffffffff91909116600090815260086020526040902080547fffffffffffffffffffffffffffffffffffffffffffffffffffffffffffffff0016911515919091179055565b6000838152600b602090815260409182902082516060810184528154815260019091015473ffffffffffffffffffffffffffffffffffffffff811692820183905274010000000000000000000000000000000000000000900460ff16928101929092526112e55760405162461bcd60e51b815260206004820152601360248201527f4173736574206e6f7420737570706f7274656400000000000000000000000000604482015260640161083f565b60208101516040517f23b872dd0000000000000000000000000000000000000000000000000000000081523360048201523060248201526044810185905273ffffffffffffffffffffffffffffffffffffffff909116906323b872dd906064016020604051808303816000875af1158015611364573d6000803e3d6000fd5b505050506040513d601f19601f8201168201806040525081019061138891906134c1565b50611397878787878787612759565b50505050505050565b6113a8611ab2565b6040805160608101825284815273ffffffffffffffffffffffffffffffffffffffff938416602080830191825260ff9485168385019081526000978852600b9091529290952090518155935160019094018054915190921674010000000000000000000000000000000000000000027fffffffffffffffffffffff0000000000000000000000000000000000000000009091169390921692909217179055565b60008160000361147957507f2fe54c60d3acabf3343a35b6eba15db4821b340f76e741e2249685ed4899af6c919050565b816001036114a857507f13e37f2d6cb86c78ccc1788607c2b199788c6bb0a615a21f2e7a8e88384222f8919050565b816002036114d757507f217126fa352c326896e8c2803eec8fd63ad50cf65edfef27a41a9e32dc622765919050565b8160030361150657507f0e28a61a9b3e91007d5a9e3ada18e1b24d6d230c618388ee5df34cacd7397eee919050565b8160040361153557507f27953447a6979839536badc5425ed15fadb0e292e9bc36f92f0aa5cfa5013587919050565b8160050361156457507f194191edbfb91d10f6a7afd315f33095410c7801c47175c2df6dc2cce0e3affc919050565b8160060361159357507f1733dece17d71190516dbaf1927936fa643dc7079fc0cc731de9d6845a47741f919050565b816007036115c257507f267855a7dc75db39d81d17f95d0a7aa572bf5ae19f4db0e84221d2b2ef999219919050565b816008036115f157507f1184e11836b4c36ad8238a340ecc0985eeba665327e33e9b0e3641027c27620d919050565b8160090361162057507f0702ab83a135d7f55350ab1bfaa90babd8fc1d2b3e6a7215381a7b2213d6c5ce919050565b81600a0361164f57507f2eecc0de814cfd8c57ce882babb2e30d1da56621aef7a47f3291cffeaec26ad7919050565b81600b0361167e57507f280bc02145c155d5833585b6c7b08501055157dd30ce005319621dc462d33b47919050565b81600c036116ad57507f045132221d1fa0a7f4aed8acd2cbec1e2189b7732ccb2ec272b9c60f0d5afc5b919050565b81600d036116dc57507f27f427ccbf58a44b1270abbe4eda6ba53bd6ac4d88cf1e00a13c4371ce71d366919050565b81600e0361170b57507f1617eaae5064f26e8f8a6493ae92bfded7fde71b65df1ca6d5dcec0df70b2cef919050565b81600f0361173a57507f20c6b400d0ea1b15435703c31c31ee63ad7ba5c8da66cec2796feacea575abca919050565b8160100361176957507f09589ddb438723f53a8e57bdada7c5f8ed67e8fece3889a73618732965645eec919050565b8160110361179757507e64b6a738a5ff537db7b220f3394f0ecbd35bfd355c5425dc1166bf3236079b919050565b816012036117c657507f095de56281b1d5055e897c3574ff790d5ee81dbc5df784ad2d67795e557c9e9f919050565b816013036117f557507f11cf2e2887aa21963a6ec14289183efe4d4c60f14ecd3d6fe0beebdf855a9b63919050565b8160140361182457507f2b0f6fc0179fa65b6f73627c0e1e84c7374d2eaec44c9a48f2571393ea77bcbb919050565b8160150361185357507f16fdb637c2abf9c0f988dbf2fd64258c46fb6a273d537b2cf1603ea460b13279919050565b8160160361188257507f21bbd7e944f6124dad4c376df9cc12e7ca66e47dff703ff7cedb1a454edcf0ff919050565b816017036118b157507f2784f8220b1c963e468f590f137baaa1625b3b92a27ad9b6e84eb0d3454d9962919050565b816018036118e057507f16ace1a65b7534142f8cc1aad810b3d6a7a74ca905d9c275cb98ba57e509fc10919050565b8160190361190f57507f2328068c6a8c24265124debd8fe10d3f29f0665ea725a65e3638f6192a96a013919050565b81601a0361193e57507f2ddb991be1f028022411b4c4d2c22043e5e751c120736f00adf54acab1c9ac14919050565b81601b0361196d57507f0113798410eaeb95056a464f70521eb58377c0155f2fe518a5594d38cc209cc0919050565b81601c0361199c57507f202d1ae61526f0d0d01ef80fb5d4055a7af45721024c2c24cffd6a3798f54d50919050565b81601d036119cb57507f23ab323453748129f2765f79615022f5bebd6f4096a796300aab049a60b0f187919050565b81601e036119fa57507f1f15585f8947e378bcf8bd918716799da909acdb944c57150b1eb4565fda8aa0919050565b81601f03611a2957507f1eb064b21055ac6a350cf41eb30e4ce2cb19680217df3a243617c2838185ad06919050565b81602003611a5857507f25a90efc49af54a5b7154a6eaba978dcf04796b4984fe54be8d4ea8579e1f1e6919050565b60405162461bcd60e51b815260206004820152601360248201527f496e646578206f7574206f6620626f756e647300000000000000000000000000604482015260640161083f565b919050565b611aad611ab2565b600955565b600a5473ffffffffffffffffffffffffffffffffffffffff163314611b3f5760405162461bcd60e51b815260206004820152602160248201527f4f6e6c79206f776e65722063616e2063616c6c20746869732066756e6374696f60448201527f6e00000000000000000000000000000000000000000000000000000000000000606482015260840161083f565b565b611b49612c04565b611b51612c22565b611b59612c04565b83806020019051810190611b6d9190613827565b895160208b8101518b820193909352928a5281830193909352929092528082019290925291905285015283529193909250565b611ba981610c59565b611bf55760405162461bcd60e51b815260206004820152601360248201527f496e76616c6964206d65726b6c6520726f6f7400000000000000000000000000604482015260640161083f565b60005b8551811015611c8c57611c37868281518110611c1657611c166134de565b60200260200101516020015160009081526005602052604090205460ff1690565b15611c845760405162461bcd60e51b815260206004820152601660248201527f496e70757420697320616c7265616479207370656e7400000000000000000000604482015260640161083f565b600101611bf8565b50600073__$028df8f3248521475cae26bff5f27a8183$__63bc1b392d6040518163ffffffff1660e01b81526004016040805180830381865af4158015611cd7573d6000803e3d6000fd5b505050506040513d601f19601f82011682018060405250810190611cfb9190613557565b905060005b8651811015611df7576000878281518110611d1d57611d1d6134de565b602002602001015190508273__$028df8f3248521475cae26bff5f27a8183$__639f422d99909160405180604001604052808560400151600060028110611d6657611d666134de565b602002015181526020018560400151600160028110611d8757611d876134de565b60200201518152506040518363ffffffff1660e01b8152600401611dac929190613801565b6040805180830381865af4158015611dc8573d6000803e3d6000fd5b505050506040513d601f19601f82011682018060405250810190611dec9190613557565b925050600101611d00565b5060005b8551811015611f80576000868281518110611e1857611e186134de565b602002602001015190508273__$028df8f3248521475cae26bff5f27a8183$__639f422d99909160405180604001604052808560400151600060028110611e6157611e616134de565b602002015181526020018560400151600160028110611e8257611e826134de565b602002015190526040517f5e20a7f100000000000000000000000000000000000000000000000000000000815273__$028df8f3248521475cae26bff5f27a8183$__91635e20a7f191611ed891906004016137ea565b6040805180830381865af4158015611ef4573d6000803e3d6000fd5b505050506040513d601f19601f82011682018060405250810190611f189190613557565b6040518363ffffffff1660e01b8152600401611f35929190613801565b6040805180830381865af4158015611f51573d6000803e3d6000fd5b505050506040513d601f19601f82011682018060405250810190611f759190613557565b925050600101611dfb565b5083516040517f5e20a7f100000000000000000000000000000000000000000000000000000000815273__$028df8f3248521475cae26bff5f27a8183$__90639f422d999084908390635e20a7f190611fdd908a906004016137ea565b6040805180830381865af4158015611ff9573d6000803e3d6000fd5b505050506040513d601f19601f8201168201806040525081019061201d9190613557565b6040518363ffffffff1660e01b815260040161203a929190613801565b6040805180830381865af4158015612056573d6000803e3d6000fd5b505050506040513d601f19601f8201168201806040525081019061207a9190613557565b51148015612185575060208401516040517f5e20a7f100000000000000000000000000000000000000000000000000000000815273__$028df8f3248521475cae26bff5f27a8183$__90639f422d999084908390635e20a7f1906120e2908a906004016137ea565b6040805180830381865af41580156120fe573d6000803e3d6000fd5b505050506040513d601f19601f820116820180604052508101906121229190613557565b6040518363ffffffff1660e01b815260040161213f929190613801565b6040805180830381865af415801561215b573d6000803e3d6000fd5b505050506040513d601f19601f8201168201806040525081019061217f9190613557565b60200151145b6121d15760405162461bcd60e51b815260206004820152601a60248201527f53756d206f662076616c75657320697320696e636f7272656374000000000000604482015260640161083f565b60005b86518110156122245760008782815181106121f1576121f16134de565b6020026020010151905061221b81600001516040518060200160405280846020015181525061073a565b506001016121d4565b5060005b8551811015612278576000868281518110612245576122456134de565b6020026020010151905061226f81600001516040518060200160405280846020015181525061084f565b50600101612228565b5060005b86518110156122ef5760016005600089848151811061229d5761229d6134de565b602090810291909101810151810151825281019190915260400160002080547fffffffffffffffffffffffffffffffffffffffffffffffffffffffffffffff001691151591909117905560010161227c565b5084516002146123415760405162461bcd60e51b815260206004820152601a60248201527f6f6e6c792063616e20646f2032206f757470757470726f6f6673000000000000604482015260640161083f565b61234a85612952565b60035461236790600290640100000000900463ffffffff16613884565b63ffffffff1685600081518110612380576123806134de565b6020026020010151602001517fe5b9fcee308349a880a3033e7bf8f0d7192658e7dbdaf7481ecc63f3d7addf03876000815181106123c0576123c06134de565b6020026020010151606001516040516123d991906138a8565b60405180910390a36003546123fe90600190640100000000900463ffffffff16613884565b63ffffffff1685600181518110612417576124176134de565b6020026020010151602001517fe5b9fcee308349a880a3033e7bf8f0d7192658e7dbdaf7481ecc63f3d7addf0387600181518110612457576124576134de565b60200260200101516060015160405161247091906138a8565b60405180910390a360005b865181101561139757868181518110612496576124966134de565b6020026020010151602001517f9218fa47e982bf1ded9b6823b77dbac4a5db62fc73f8efc325c7de424a41180260405160405180910390a260010161247b565b600073__$028df8f3248521475cae26bff5f27a8183$__635d90c2d56040518163ffffffff1660e01b81526004016040805180830381865af4158015612520573d6000803e3d6000fd5b505050506040513d601f19601f820116820180604052508101906125449190613557565b6040517f2afb49270000000000000000000000000000000000000000000000000000000081528151600482015260209091015160248201526044810185905273__$028df8f3248521475cae26bff5f27a8183$__90632afb4927906064016040805180830381865af41580156125be573d6000803e3d6000fd5b505050506040513d601f19601f820116820180604052508101906125e29190613557565b6040517f2afb49270000000000000000000000000000000000000000000000000000000081528151600482015260209091015160248201526044810184905273__$028df8f3248521475cae26bff5f27a8183$__90632afb4927906064015b6040805180830381865af415801561265d573d6000803e3d6000fd5b505050506040513d601f19601f820116820180604052508101906126819190613557565b90506113978787878486611ba0565b806020015181604001518060200190518101906126ad91906138bb565b6040805173ffffffffffffffffffffffffffffffffffffffff831660208083019190915267ffffffffffffffff8516828401528251808303840181526060909201835281519181019190912060009081526006909152205460ff166127545760405162461bcd60e51b815260206004820152601860248201527f536f7572636520436861696e206e6f7420616c6c6f7765640000000000000000604482015260640161083f565b505050565b600073__$028df8f3248521475cae26bff5f27a8183$__635d90c2d56040518163ffffffff1660e01b81526004016040805180830381865af41580156127a3573d6000803e3d6000fd5b505050506040513d601f19601f820116820180604052508101906127c79190613557565b6040517f2afb49270000000000000000000000000000000000000000000000000000000081528151600482015260209091015160248201526044810185905273__$028df8f3248521475cae26bff5f27a8183$__90632afb4927906064016040805180830381865af4158015612841573d6000803e3d6000fd5b505050506040513d601f19601f820116820180604052508101906128659190613557565b6040517f2afb49270000000000000000000000000000000000000000000000000000000081528151600482015260209091015160248201526044810184905273__$028df8f3248521475cae26bff5f27a8183$__90632afb4927906064016040805180830381865af41580156128df573d6000803e3d6000fd5b505050506040513d601f19601f820116820180604052508101906129039190613557565b6040517f5e20a7f100000000000000000000000000000000000000000000000000000000815273__$028df8f3248521475cae26bff5f27a8183$__91635e20a7f19161264191906004016137ea565b61299e81600081518110612968576129686134de565b60200260200101516020015160001b8260018151811061298a5761298a6134de565b60200260200101516020015160001b6129a2565b5050565b600354600090640100000000900463ffffffff166129e17f000000000000000000000000000000000000000000000000000000000000000060026139e9565b63ffffffff168163ffffffff1603612a615760405162461bcd60e51b815260206004820152603060248201527f4d65726b6c6520747265652069732066756c6c2e204e6f206d6f7265206c656160448201527f7665732063616e20626520616464656400000000000000000000000000000000606482015260840161083f565b6000612a6e6002836139fe565b90506000612a7c86866108c1565b905060008060015b7f000000000000000000000000000000000000000000000000000000000000000063ffffffff168163ffffffff161015612b3e57612ac3600286613a21565b63ffffffff16600003612b0157839250612ae28163ffffffff16611448565b63ffffffff821660009081526001602052604090208590559150612b1d565b63ffffffff811660009081526001602052604090205492508391505b612b2783836108c1565b9350612b346002866139fe565b9450600101612a84565b50600354600090606490612b599063ffffffff166001613a44565b612b639190613a21565b600380547fffffffffffffffffffffffffffffffffffffffffffffffffffffffff000000001663ffffffff83169081179091556000908152600260208190526040909120869055909150612bb8908790613a44565b6003805463ffffffff92909216640100000000027fffffffffffffffffffffffffffffffffffffffffffffffff00000000ffffffff909216919091179055509394505050505092915050565b60405180604001604052806002906020820280368337509192915050565b60405180604001604052806002905b612c39612c04565b815260200190600190039081612c315790505090565b600060208284031215612c6157600080fd5b81357fffffffff0000000000000000000000000000000000000000000000000000000081168114612c9157600080fd5b9392505050565b600060208284031215612caa57600080fd5b5035919050565b73ffffffffffffffffffffffffffffffffffffffff81168114610d5957600080fd5b803567ffffffffffffffff81168114611aa057600080fd5b8015158114610d5957600080fd5b600080600060608486031215612d0e57600080fd5b8335612d1981612cb1565b9250612d2760208501612cd3565b91506040840135612d3781612ceb565b809150509250925092565b7f4e487b7100000000000000000000000000000000000000000000000000000000600052604160045260246000fd5b6040516060810167ffffffffffffffff81118282101715612d9457612d94612d42565b60405290565b6040516080810167ffffffffffffffff81118282101715612d9457612d94612d42565b6040805190810167ffffffffffffffff81118282101715612d9457612d94612d42565b60405160a0810167ffffffffffffffff81118282101715612d9457612d94612d42565b604051601f8201601f1916810167ffffffffffffffff81118282101715612e2c57612e2c612d42565b604052919050565b600082601f830112612e4557600080fd5b813567ffffffffffffffff811115612e5f57612e5f612d42565b612e726020601f19601f84011601612e03565b818152846020838601011115612e8757600080fd5b816020850160208301376000918101602001919091529392505050565b60008060408385031215612eb757600080fd5b823567ffffffffffffffff80821115612ecf57600080fd5b612edb86838701612e34565b93506020915085603f860112612ef057600080fd5b604051602081018181108382111715612f0b57612f0b612d42565b80604052508091506040860187811115612f2457600080fd5b602087015b81811015612f405780358452928401928401612f29565b509497909650945050505050565b60008060408385031215612f6157600080fd5b50508035926020909101359150565b600067ffffffffffffffff821115612f8a57612f8a612d42565b5060051b60200190565b600082601f830112612fa557600080fd5b612fad612dbd565b806040840185811115612fbf57600080fd5b845b81811015612fd9578035845260209384019301612fc1565b509095945050505050565b600082601f830112612ff557600080fd5b8135602061300a61300583612f70565b612e03565b82815260059290921b8401810191818101908684111561302957600080fd5b8286015b848110156130c057803567ffffffffffffffff8082111561304e5760008081fd5b908801906080828b03601f190112156130675760008081fd5b61306f612d71565b86830135828111156130815760008081fd5b61308f8c8983870101612e34565b8252506040915081830135878201526130ab8b60608501612f94565b9181019190915284525091830191830161302d565b509695505050505050565b600082601f8301126130dc57600080fd5b813560206130ec61300583612f70565b82815260059290921b8401810191818101908684111561310b57600080fd5b8286015b848110156130c057803567ffffffffffffffff808211156131305760008081fd5b818901915060a080601f19848d0301121561314b5760008081fd5b613153612d9a565b87840135838111156131655760008081fd5b6131738d8a83880101612e34565b82525060408085013589830152606061318e8e828801612f94565b838301529285013592848411156131a757600091508182fd5b6131b58e8b86890101612e34565b9083015250865250505091830191830161310f565b60008060008060a085870312156131e057600080fd5b843567ffffffffffffffff808211156131f857600080fd5b61320488838901612fe4565b9550602087013591508082111561321a57600080fd5b50613227878288016130cb565b9350506132378660408701612f94565b9396929550929360800135925050565b60008060008060008060e0878903121561326057600080fd5b863567ffffffffffffffff8082111561327857600080fd5b6132848a838b01612fe4565b9750602089013591508082111561329a57600080fd5b506132a789828a016130cb565b9550506132b78860408901612f94565b93506080870135925060a0870135915060c087013590509295509295509295565b6000602082840312156132ea57600080fd5b813567ffffffffffffffff81111561330157600080fd5b820160a08185031215612c9157600080fd5b60008060008060c0858703121561332957600080fd5b8435935061333a8660208701612f94565b92506133498660608701612f94565b915060a085013567ffffffffffffffff81111561336557600080fd5b61337187828801612e34565b91505092959194509250565b6000806040838503121561339057600080fd5b61339983612cd3565b915060208301356133a981612ceb565b809150509250929050565b6000806000606084860312156133c957600080fd5b8335925060208401356133db81612cb1565b9150604084013560ff81168114612d3757600080fd5b8060005b60028110156134145781518452602093840193909101906001016133f5565b50505050565b610120810161342982876133f1565b60408083018660005b6002808210613441575061347c565b82518460005b83811015613465578251825260209283019290910190600101613447565b505050928401925060209190910190600101613432565b5050505061348d60c08301856133f1565b61010082018360005b60018110156134b5578151835260209283019290910190600101613496565b50505095945050505050565b6000602082840312156134d357600080fd5b8151612c9181612ceb565b7f4e487b7100000000000000000000000000000000000000000000000000000000600052603260045260246000fd5b60408101818360005b6002811015613535578151835260209283019290910190600101613516565b50505092915050565b60006020828403121561355057600080fd5b5051919050565b60006040828403121561356957600080fd5b613571612dbd565b82518152602083015160208201528091505092915050565b7f4e487b7100000000000000000000000000000000000000000000000000000000600052601160045260246000fd5b600063ffffffff8216806135ce576135ce613589565b7fffffffffffffffffffffffffffffffffffffffffffffffffffffffffffffffff0192915050565b600082601f83011261360757600080fd5b8135602061361761300583612f70565b82815260069290921b8401810191818101908684111561363657600080fd5b8286015b848110156130c057604081890312156136535760008081fd5b61365b612dbd565b813561366681612cb1565b8152818501358582015283529183019160400161363a565b600060a0823603121561369057600080fd5b613698612de0565b823581526136a860208401612cd3565b6020820152604083013567ffffffffffffffff808211156136c857600080fd5b6136d436838701612e34565b604084015260608501359150808211156136ed57600080fd5b6136f936838701612e34565b6060840152608085013591508082111561371257600080fd5b5061371f368286016135f6565b60808301525092915050565b6000815180845260005b8181101561375157602081850181015186830182015201613735565b506000602082860101526020601f19601f83011685010191505092915050565b85815284602082015283604082015282606082015260a06080820152600061379c60a083018461372b565b979650505050505050565b7f4e487b7100000000000000000000000000000000000000000000000000000000600052601260045260246000fd5b6000826137e5576137e56137a7565b500690565b815181526020808301519082015260408101610692565b825181526020808401518183015282516040830152820151606082015260808101612c91565b600080600080600080600080610100898b03121561384457600080fd5b505086516020880151604089015160608a015160808b015160a08c015160c08d015160e0909d0151959e949d50929b919a50985090965094509092509050565b63ffffffff8281168282160390808211156138a1576138a1613589565b5092915050565b602081526000612c91602083018461372b565b6000602082840312156138cd57600080fd5b8151612c9181612cb1565b600181815b80851115613915578163ffffffff048211156138fb576138fb613589565b8085161561390857918102915b93841c93908002906138dd565b509250929050565b60008261392c57506001610692565b8161393957506000610692565b816001811461394f57600281146139595761398a565b6001915050610692565b60ff84111561396a5761396a613589565b6001841b915063ffffffff82111561398457613984613589565b50610692565b5060208310610133831016604e8410600b84101617156139c1575081810a63ffffffff8111156139bc576139bc613589565b610692565b6139cb83836138d8565b8063ffffffff048211156139e1576139e1613589565b029392505050565b600063ffffffff610a7081851682851661391d565b600063ffffffff80841680613a1557613a156137a7565b92169190910492915050565b600063ffffffff80841680613a3857613a386137a7565b92169190910692915050565b63ffffffff8181168382160190808211156138a1576138a161358956fea26469706673582212202874f5f12b3ddbcd711397ce649ced672f2960858d43a13b36b7f91787fb1b4d64736f6c63430008190033",
  "libraries": {
    "EdOnBN254": "0xaaCd292B475c6Cd2543DaC465516Ab5d7fCd27f3"
  },
  "devdoc": {
    "kind": "dev",
    "methods": {
      "ccipReceive((bytes32,uint64,bytes,bytes,(address,uint256)[]))": {
        "details": "Note ensure you check the msg.sender is the OffRampRouter",
        "params": {
          "message": "CCIP Message"
        }
      },
      "getLastRoot()": {
        "details": "Returns the last root"
      },
      "getRouter()": {
        "returns": {
          "_0": "CCIP router address"
        }
      },
      "hashLeftRight(bytes32,bytes32)": {
        "details": "Hash 2 tree leaves, returns Poseidon(_left, _right)"
      },
      "isKnownRoot(bytes32)": {
        "details": "Whether the root is present in the root history"
      },
      "supportsInterface(bytes4)": {
        "details": "Should indicate whether the contract implements IAny2EVMMessageReceiver e.g. return interfaceId == type(IAny2EVMMessageReceiver).interfaceId || interfaceId == type(IERC165).interfaceId This allows CCIP to check if ccipReceive is available before calling it. If this returns false or reverts, only tokens are transferred to the receiver. If this returns true, tokens are transferred and ccipReceive is called atomically. Additionally, if the receiver address does not have code associated with it at the time of execution (EXTCODESIZE returns 0), only tokens will be transferred.",
        "params": {
          "interfaceId": "The interfaceId to check"
        },
        "returns": {
          "_0": "true if the interfaceId is supported"
        }
      },
      "zeros(uint256)": {
        "details": "provides Zero (Empty) elements for a MiMC MerkleTree. Up to 32 levels"
      }
    },
    "version": 1
  },
  "userdoc": {
    "kind": "user",
    "methods": {
      "ccipReceive((bytes32,uint64,bytes,bytes,(address,uint256)[]))": {
        "notice": "Called by the Router to deliver a message. If this reverts, any token transfers also revert. The message will move to a FAILED state and become available for manual execution."
      },
      "getRouter()": {
        "notice": "Return the current router"
      },
      "router()": {
        "notice": "Chainlink CCIP Router Address - used to send messages across chains"
      },
      "supportsInterface(bytes4)": {
        "notice": "IERC165 supports an interfaceId"
      }
    },
    "version": 1
  },
  "storageLayout": {
    "storage": [
      {
        "astId": 1517,
        "contract": "contracts/RK.sol:RK",
        "label": "hasher",
        "offset": 0,
        "slot": "0",
        "type": "t_contract(IHasher)1508"
      },
      {
        "astId": 1523,
        "contract": "contracts/RK.sol:RK",
        "label": "filledSubtrees",
        "offset": 0,
        "slot": "1",
        "type": "t_mapping(t_uint256,t_bytes32)"
      },
      {
        "astId": 1527,
        "contract": "contracts/RK.sol:RK",
        "label": "roots",
        "offset": 0,
        "slot": "2",
        "type": "t_mapping(t_uint256,t_bytes32)"
      },
      {
        "astId": 1533,
        "contract": "contracts/RK.sol:RK",
        "label": "currentRootIndex",
        "offset": 0,
        "slot": "3",
        "type": "t_uint32"
      },
      {
        "astId": 1536,
        "contract": "contracts/RK.sol:RK",
        "label": "nextIndex",
        "offset": 4,
        "slot": "3",
        "type": "t_uint32"
      },
      {
        "astId": 348,
        "contract": "contracts/RK.sol:RK",
        "label": "spendVerifier",
        "offset": 8,
        "slot": "3",
        "type": "t_contract(SpendVerifier)2831"
      },
      {
        "astId": 351,
        "contract": "contracts/RK.sol:RK",
        "label": "outputVerifier",
        "offset": 0,
        "slot": "4",
        "type": "t_contract(OutputVerifier)2734"
      },
      {
        "astId": 367,
        "contract": "contracts/RK.sol:RK",
        "label": "nullifierHashes",
        "offset": 0,
        "slot": "5",
        "type": "t_mapping(t_uint256,t_bool)"
      },
      {
        "astId": 2176,
        "contract": "contracts/RK.sol:RK",
        "label": "allowedRemotes",
        "offset": 0,
        "slot": "6",
        "type": "t_mapping(t_bytes32,t_bool)"
      },
      {
        "astId": 2180,
        "contract": "contracts/RK.sol:RK",
        "label": "allowedChainIds",
        "offset": 0,
        "slot": "7",
        "type": "t_mapping(t_uint64,t_bool)"
      },
      {
        "astId": 2184,
        "contract": "contracts/RK.sol:RK",
        "label": "allowlistedChains",
        "offset": 0,
        "slot": "8",
        "type": "t_mapping(t_uint64,t_bool)"
      },
      {
        "astId": 2187,
        "contract": "contracts/RK.sol:RK",
        "label": "gasLimit",
        "offset": 0,
        "slot": "9",
        "type": "t_uint256"
      },
      {
        "astId": 2229,
        "contract": "contracts/RK.sol:RK",
        "label": "owner",
        "offset": 0,
        "slot": "10",
        "type": "t_address"
      },
      {
        "astId": 2394,
        "contract": "contracts/RK.sol:RK",
        "label": "assetToAddress",
        "offset": 0,
        "slot": "11",
        "type": "t_mapping(t_uint256,t_struct(SupportedAsset)2389_storage)"
      }
    ],
    "types": {
      "t_address": {
        "encoding": "inplace",
        "label": "address",
        "numberOfBytes": "20"
      },
      "t_bool": {
        "encoding": "inplace",
        "label": "bool",
        "numberOfBytes": "1"
      },
      "t_bytes32": {
        "encoding": "inplace",
        "label": "bytes32",
        "numberOfBytes": "32"
      },
      "t_contract(IHasher)1508": {
        "encoding": "inplace",
        "label": "contract IHasher",
        "numberOfBytes": "20"
      },
      "t_contract(OutputVerifier)2734": {
        "encoding": "inplace",
        "label": "contract OutputVerifier",
        "numberOfBytes": "20"
      },
      "t_contract(SpendVerifier)2831": {
        "encoding": "inplace",
        "label": "contract SpendVerifier",
        "numberOfBytes": "20"
      },
      "t_mapping(t_bytes32,t_bool)": {
        "encoding": "mapping",
        "key": "t_bytes32",
        "label": "mapping(bytes32 => bool)",
        "numberOfBytes": "32",
        "value": "t_bool"
      },
      "t_mapping(t_uint256,t_bool)": {
        "encoding": "mapping",
        "key": "t_uint256",
        "label": "mapping(uint256 => bool)",
        "numberOfBytes": "32",
        "value": "t_bool"
      },
      "t_mapping(t_uint256,t_bytes32)": {
        "encoding": "mapping",
        "key": "t_uint256",
        "label": "mapping(uint256 => bytes32)",
        "numberOfBytes": "32",
        "value": "t_bytes32"
      },
      "t_mapping(t_uint256,t_struct(SupportedAsset)2389_storage)": {
        "encoding": "mapping",
        "key": "t_uint256",
        "label": "mapping(uint256 => struct RK.SupportedAsset)",
        "numberOfBytes": "32",
        "value": "t_struct(SupportedAsset)2389_storage"
      },
      "t_mapping(t_uint64,t_bool)": {
        "encoding": "mapping",
        "key": "t_uint64",
        "label": "mapping(uint64 => bool)",
        "numberOfBytes": "32",
        "value": "t_bool"
      },
      "t_struct(SupportedAsset)2389_storage": {
        "encoding": "inplace",
        "label": "struct RK.SupportedAsset",
        "members": [
          {
            "astId": 2384,
            "contract": "contracts/RK.sol:RK",
            "label": "assetId",
            "offset": 0,
            "slot": "0",
            "type": "t_uint256"
          },
          {
            "astId": 2386,
            "contract": "contracts/RK.sol:RK",
            "label": "assetAddress",
            "offset": 0,
            "slot": "1",
            "type": "t_address"
          },
          {
            "astId": 2388,
            "contract": "contracts/RK.sol:RK",
            "label": "decimals",
            "offset": 20,
            "slot": "1",
            "type": "t_uint8"
          }
        ],
        "numberOfBytes": "64"
      },
      "t_uint256": {
        "encoding": "inplace",
        "label": "uint256",
        "numberOfBytes": "32"
      },
      "t_uint32": {
        "encoding": "inplace",
        "label": "uint32",
        "numberOfBytes": "4"
      },
      "t_uint64": {
        "encoding": "inplace",
        "label": "uint64",
        "numberOfBytes": "8"
      },
      "t_uint8": {
        "encoding": "inplace",
        "label": "uint8",
        "numberOfBytes": "1"
      }
    }
  }
}